:040000008EEF3FF050
:107F1C000001B4EF3FF0016E01C0A9FFA69EA68040
:107F2C00A8501200026E02C0A9FF01C0A8FFA69EB5
:107F3C00A684F2CF03F0000EF26E550EA76EAA0EB9
:107F4C00A76EA68203C0F2FFA694A1A8B0EF3FF0E3
:107F5C00B2EF3FF0ABEF3FF0A1981200000E946E21
:107F6C00000E096E000E086E000E076E010E066EF6
:107F7C0006C001F0085098EC3FF0340E046EF20E7F
:107F8C00E82EFED7042EFCD7D8900634066E0734A4
:107F9C00076E084A092A095009E1080E085CD8A0A6
:107FAC00DAEF3FF0DCEF3FF0BEEF3FF0000E0B6E70
:107FBC00000E0A6E0A5091EC3FF0826E0B0E056EAD
:107FCC00260E046E5E0EE82EFED7042EFCD7052E70
:107FDC00FAD70A4A0B2A0B5009E1080E0A5CD8A002
:107FEC00FAEF3FF0FCEF3FF0E0EF3FF0B6EF3FF081
:047FFC0000EF00F0A2
:020000040020DA
:08000000FFFFFFFFFFFFFFFF00
:020000040030CA
:0E000000FF021F1FFF8385FF0FC00FE00F40A0
:00000001FF
