:0400000072EF3EF06D
:107CB40018003C00660066007E00660066006600F0
:107CC40080004000200010000800040002000100B1
:107CD40001000200040008001000200040008000A1
:107CE400A00EF66E7D0EF76E000EF86E03EEA0F099
:107CF40012EE60F00900F5CFEEFFE550E150FAE135
:107D0400E250F8E1B40EF66E7C0EF76E000EF86EDB
:107D140000EE01F010EE30F00900F5CFEEFFE55073
:107D2400E150FAE1000197EF3EF00F0EC16E000E34
:107D3400946E000E956E000E326E000E316ED89069
:107D44003134D96E3234DA6E210ED926000EDA229D
:107D5400DF50836ED8903134D96E3234DA6EF00E3F
:107D6400D926030EDA22DF50FF0A826E210EE82E96
:107D7400FED700F0314A322A32BECAEF3EF032500A
:107D840009E1080E315CD8A0CAEF3EF0CCEF3EF01A
:107D9400A1EF3EF09DEF3EF000EF00F018003C0034
:107DA400660066007E006600660066007800640077
:107DB400680078006400660066007C003C00620095
:107DC400600060006000620062003C0078006400B3
:107DD4006600660066006600640078007E0060004D
:107DE40060007C006000600060007E007E00600037
:107DF40060007C0060006000600060003C00620085
:107E0400600060006600620062003C00660066007C
:107E140066007E0066006600660066007E0018004C
:107E2400180018001800180018007E007E001800C2
:107E340018001800180018001A000C0062006400F2
:107E440068007000700068006400620060006000F8
:107E5400600060006000600060007E00C300E70016
:107E6400DB00DB00C300C300C300C3006200620088
:107E7400520052004A004A00460046003C00660098
:107E8400660066006600660066003C007C006200D6
:107E940062007C00600060006000600038006400E4
:107EA4006400640064006C0064003A007C006200BA
:107EB40062007C0070006800640062001C00220004
:107EC400300018000C00460046003C007E001800FC
:107ED4001800180018001800180018006600660042
:107EE400660066006600660066003C006600660088
:107EF40066006600660066003C0018008100810090
:107F040081008100810099009900660042004200CE
:107F1400240018001800240042004200C300660038
:107F24003C00180018001800180018007E00020019
:107F3400040008001000200040007E003C006600A1
:107F440066006E007600660066003C00180038008B
:107F5400580018001800180018007E003C00660045
:107F640066000C00180030007E007E007E000C00CD
:107F740018003C000600060046003C000C001800F7
:107F840030006C006C007E000C000C007E00600071
:107F940060007C000600060046003C000400080067
:107FA400100038006C00660066003C007E0046004D
:107FB4000C00180018001800180018003C00660097
:107FC40066003C006600660066003C003C006600FB
:107FD400660036001C0008001000200000000000AD
:107FE4000000000000000000000000000000660027
:0C7FF400FF00FF007E003C0018000000B1
:020000040020DA
:08000000FFFFFFFFFFFFFFFF00
:020000040030CA
:0E000000FF081F1FFF8385FF0FC00FE00F409A
:00000001FF
