:0400000007EF00F016
:10000800078209ED00F06CEF00F00600F2A20FEF96
:1000180000F011EF00F043EF00F0000E046E000E48
:10002800036E04BE21EF00F0045009E1080E035CE2
:10003800D8A021EF00F023EF00F025EF00F042EF09
:1000480000F003C001F0010E026E012A2EEF00F04D
:10005800D8900236012E2CEF00F00250836E040E69
:10006800026E0C0E016E340EE82EFED7012EFCD760
:10007800022EFAD7034A042A15EF00F0F2920792EB
:1000880011000F0EC16E030E936E000E956EF28E68
:10009800F288F19CF28E000E836E060E066E130E29
:1000A800056EAE0EE82EFED7052EFCD7062EFAD723
:1000B8008368060E066E130E056EAE0EE82EFED78A
:1000C800052EFCD7062EFAD74FEF00F007EF00F009
:0A00D80007900792000145EF00F0C9
:020000040020DA
:08000000FFFFFFFFFFFFFFFF00
:020000040030CA
:0E000000FF021F1FFF8385FF0FC00FE00F40A0
:00000001FF
