:0400000022EF04F0F7
:1006000000484F414E4756494E485855414E0020EC
:100610000000086E08C00CF0000E59EC04F09C0EAF
:10062000066ED70EE82EFED7062EFCD700F0030E7E
:100630004CEC04F01A0E066EF80EE82EFED7062ECD
:10064000FCD700D0030E4CEC04F01A0E066EF80E28
:10065000E82EFED7062EFCD700D0030E4CEC04F09B
:100660001A0E066EF80EE82EFED7062EFCD700D026
:10067000020E4CEC04F01A0E066EF80EE82EFED7B1
:10068000062EFCD700D0280E4CEC04F0020E076EAC
:10069000040E066EBA0EE82EFED7062EFCD7072EE5
:1006A000FAD700D00C0E4CEC04F0020E076E040ECC
:1006B000066EBA0EE82EFED7062EFCD7072EFAD706
:1006C00000D0010E4CEC04F0020E076E040E066E14
:1006D000BA0EE82EFED7062EFCD7072EFAD700D08A
:1006E000060E4CEC04F0020E076E040E066EBA0EF7
:1006F000E82EFED7062EFCD7072EFAD700D0120020
:10070000096E9BEF03F00650BF0F4CEC04F0B4EF02
:1007100003F00650930F4CEC04F0B4EF03F00650D6
:10072000D30F4CEC04F0B4EF03F006507F0F4CEC09
:1007300004F0B4EF03F00950076E086A0850000A8D
:10074000D8B4A5EF03F095EF03F00750020AD8B430
:1007500083EF03F0010AD8B489EF03F0070AD8B495
:100760008FEF03F095EF03F01200000E0B6E000EFA
:100770000A6ECBEF03F00A500624086E0B500720D8
:10078000096E08C0F6FF09C0F7FF0800F5503FECFE
:1007900004F00A4A0B2A0A500624086E0B50072060
:1007A000096E08C0F6FF09C0F7FF0800F550000900
:1007B000D8A4DDEF03F0DFEF03F0BBEF03F012008E
:1007C00066EC04F04E0E09EC03F0010E066E010E0D
:1007D00080EC03F0010E066E060E076EB5EC03F01A
:1007E000010E066E020E80EC03F00F0E066E060E72
:1007F000076EB5EC03F0FBEF03F000EF00F0C7B4B9
:1008000004EF04F006EF04F0FFEF03F0C5CF01F0B2
:100810001F0E0116D8A40FEF04F011EF04F0FFEF44
:1008200003F01200046E0D5004120450040959EC38
:1008300004F00450FB0B59EC04F0420EE82EFED7F6
:1008400000D01200F20EF66E080EF76E000EF86E73
:100850000900F5CF0EF00D6A000EF86E0001E0EF12
:1008600003F0026EFFEC03F002C0C9FF9EA63BEF4F
:1008700004F03DEF04F036EF04F09E961200056E92
:10088000010E0D6E0550F00B12EC04F00538F00B64
:10089000F00B12EC04F01200056E000E0D6E055008
:1008A000F00B12EC04F00538F00BF00B12EC04F036
:1008B0001200036E75EC04F00C5031EC04F00350A0
:1008C0000E1031EC04F071EC04F01200280EC66E2C
:1008D000000EC56E000EC76E270EC86E94869488F3
:1008E0001200FFEC03F0C5841200FFEC03F0C5809A
:0308F000120008EB
:020000040020DA
:08000000FFFFFFFFFFFFFFFF00
:020000040030CA
:0E000000FF021F1FFF8385FF0FC00FE00F40A0
:00000001FF
