:0400000047EF3EF098
:107C8E00256A246A236A226A0001EDEF3EF0829093
:107C9E000C0E6BEC3EF0010E6BEC3EF0828012008F
:107CAE00036E829003506BEC3EF002506BEC3EF094
:107CBE0082801200928A94969488949A929A800E58
:107CCE00C76E300EC66E1200016E01C0C9FFC7A08E
:107CDE0073EF3EF075EF3EF06EEF3EF01200026E67
:107CEE00100E02607DEF3EF07FEF3EF087EF3EF02C
:107CFE0082900A0E6BEC3EF002506BEC3EF08280EE
:107D0E00120061EC3EF0FF0E026E090E57EC3EF0D3
:107D1E000F0E026E0A0E57EC3EF0070E026E0B0EA1
:107D2E0057EC3EF0010E026E0C0E57EC3EF0010EBB
:107D3E00026E0F0E57EC3EF0000E026E0F0E57EC59
:107D4E003EF012000550061007100810D8B4B2EF1E
:107D5E003EF0B4EF3EF0E4EF3EF0010E096EBEEFE2
:107D6E003EF0D8900536063607360836092A08AE94
:107D7E00C3EF3EF0C5EF3EF0B8EF3EF00550015CAC
:107D8E00065002580750035808500458D8A0D2EF96
:107D9E003EF0D4EF3EF0DCEF3EF00550015E0650B3
:107DAE00025A0750035A0850045AD8900832073224
:107DBE0006320532092EC5EF3EF001C001F002C0B9
:107DCE0002F003C003F004C004F0120082909490FD
:107DDE0061EC3EF088EC3EF04EEC3EF0040E76EC9C
:107DEE003EF00B0E216E260E206E5E0EE82EFED796
:107DFE00202EFCD7212EFAD7000E226E000E236EF7
:107E0E00000E246E000E256E22C00EF023C00FF061
:107E1E0024C010F025C011F0000E136E070E126E66
:107E2E008FEC3FF0020E216E040E206EBA0EE82E7D
:107E3E00FED7202EFCD7212EFAD700D0010E2226F7
:107E4E00000E2322242225222228E00E2358F50E8E
:107E5E002458050E2558D8A037EF3FF039EF3FF0E4
:107E6E000BEF3FF003EF3FF000EF00F0000E096E56
:107E7E00000E0A6E000E0B6E000E0C6E05500610F4
:107E8E0007100810D8B44EEF3FF050EF3FF086EFDA
:107E9E003FF0010E0D6E5AEF3FF0D89005360636C4
:107EAE00073608360D2A08AE5FEF3FF061EF3FF060
:107EBE0054EF3FF0D89009360A360B360C36055083
:107ECE00015C065002580750035808500458D8A0B9
:107EDE0073EF3FF075EF3FF07EEF3FF00550015E20
:107EEE000650025A0750035A0850045A0980D89077
:107EFE0008320732063205320D2E61EF3FF009C00F
:107F0E0001F00AC002F00BC003F00CC004F0120026
:107F1E00010E1C6E000E1D6E000E1E6E000E1F6EEC
:107F2E00D3EF3FF082901C506BEC3EF00EC001F090
:107F3E000FC002F010C003F011C004F00A0E056E5F
:107F4E00000E066E000E076E000E086EA9EC3EF0D7
:107F5E0001506BEC3EF082800EC001F00FC002F0BB
:107F6E0010C003F011C004F00A0E056E000E066E6E
:107F7E00000E076E000E086E3DEC3FF001C00EF0D5
:107F8E0002C00FF003C010F004C011F0010E1C2649
:107F9E00000E1D221E221F220E500F101010111047
:107FAE00D8A4DCEF3FF0DEEF3FF099EF3FF0125038
:107FBE00146E1350156E166A176A14501C5C186EE8
:107FCE0015501D58196E16501E581A6E17501F5800
:107FDE001B6E1BBEFDEF3FF01B501A10191008E16F
:107FEE001804D8A0FDEF3FF0FFEF3FF099EF3FF000
:027FFE0012006F
:020000040020DA
:08000000FFFFFFFFFFFFFFFF00
:020000040030CA
:0E000000FF021F1FFF8385FF0FC00FE00F40A0
:00000001FF
