:040000000DEF39F0D7
:10721A00000117EF39F0BD86BD84CA80CA92CA84BC
:10722A0094941200000E946EE80E0F6E030E106E08
:10723A00000E116E000E126E55EC39F010EC39F09A
:10724A00000E606E320E5F6E95EC3AF000EF00F0C1
:10725A00000E016E120E026E7A0E036E000E046E9E
:10726A0063C011F064C012F065C013F066C014F078
:10727A00020ED8901136123613361436E82E3EEF27
:10728A0039F011C005F012C006F013C007F014C09F
:10729A0008F00FEC3AF001C00FF002C010F0120033
:1072AA00000E016E120E026E7A0E036E000E046E4E
:1072BA000FC013F010C014F011C015F012C016F070
:1072CA00020ED8901336143615361636E82E66EFA7
:1072DA0039F0020ED8901336143615361636E82EC3
:1072EA006FEF39F013C005F014C006F015C007F0AF
:1072FA0016C008F00FEC3AF00104CB6E0FC063F031
:10730A0010C064F011C065F012C066F01200573464
:10731A0058345E6E5E50D8A495EF39F097EF39F085
:10732A00A1EF39F0000E556E000E566E000E576E24
:10733A00000E586E0EEF3AF055C059F056C05AF08A
:10734A0057C05BF058C05CF0200EB1EF39F0D8900E
:10735A005C325B325A325932E82EACEF39F059506E
:10736A005D6E578EFF0E5516FF0E5616FF0E5716F8
:10737A00000E5816960E5E5E5EBEC8EF39F0C6EF76
:10738A0039F0DEEF39F05E50800A970FD8B0D0EFAF
:10739A0039F0D2EF39F0D4EF39F097EF39F0D890CD
:1073AA0058325732563255325E3ED4EF39F0F6EF44
:1073BA0039F01F0E5E64E4EF39F0E6EF39F0EEEFD4
:1073CA0039F097EF39F0D890553656365736583641
:1073DA005E065E50D8A4F4EF39F0F6EF39F0E8EF24
:1073EA0039F05D50D8B4FCEF39F0FEEF39F006EF12
:1073FA003AF0581E571E561E556C000E562257223A
:10740A00582255C055F056C056F057C057F058C0CC
:10741A0058F01200000E0A6E08BE18EF3AF016EF86
:10742A003AF022EF3AF0081E071E061E056C000EFF
:10743A00062207220822010E0A6E04BE29EF3AF03C
:10744A0027EF3AF033EF3AF0041E031E021E016CD6
:10745A00000E022203220422010E0A1A000E0B6EEB
:10746A00000E0C6E000E0D6E000E0E6E055006100C
:10747A0007100810D8B444EF3AF046EF3AF07CEF20
:10748A003AF0010E096E50EF3AF0D89005360636FA
:10749A0007360836092A08AE55EF3AF057EF3AF0A0
:1074AA004AEF3AF0D8900B360C360D360E360550A8
:1074BA00015C065002580750035808500458D8A0D7
:1074CA0069EF3AF06BEF3AF074EF3AF00550015E6B
:1074DA000650025A0750035A0850045A0B80D89093
:1074EA000832073206320532092E57EF3AF00A50AF
:1074FA00D8B482EF3AF084EF3AF08CEF3AF00E1EED
:10750A000D1E0C1E0B6C000E0C220D220E220BC03F
:10751A0001F00CC002F00DC003F00EC004F012001E
:10752A00000E406EC00E416E7F0E426E440E436ED8
:10753A00000E276E000E286EC80E296E420E2A6EA5
:10754A005FC015F060C016F0176A186A000E44ECA6
:10755A003BF015C023F016C024F017C025F018C060
:10756A0026F01EEC3CF023C03CF024C03DF025C0C0
:10757A003EF026C03FF0EBEC3DF03CC055F03DC07C
:10758A0056F03EC057F03FC058F08CEC39F055C069
:10759A005FF056C060F0040E605CD8B0D7EF3AF0E6
:1075AA00D9EF3AF043EF3BF02DEC39F00FC015F06C
:1075BA0010C016F0000E16BEFF0E176E186E010EE2
:1075CA0044EC3BF015C040F016C041F017C042F041
:1075DA0018C043F0000E276EC00E286E7F0E296E6B
:1075EA00440E2A6E5FC015F060C016F0176A186A5A
:1075FA00000E44EC3BF015C023F016C024F017C06F
:10760A0025F018C026F01EEC3CF023C03CF024C044
:10761A003DF025C03EF026C03FF0EBEC3DF03CC00B
:10762A0055F03DC056F03EC057F03FC058F08CECC4
:10763A0039F055C05FF056C060F05FC061F0020ECD
:10764A006116613A6146BD506118DF0B6118BD6E63
:10765A005FC061F0010E6116613ABD506118EF0B0F
:10766A006118BD6E5FC061F060C062F0D89062328E
:10767A006132D890623261326150BE6E12001D6E64
:10768A001D50D8B44BEF3BF04DEF3BF06FEF3BF0A2
:10769A0018BE54EF3BF052EF3BF06FEF3BF015C0D2
:1076AA0019F016C01AF017C01BF018C01CF0191EEA
:1076BA001A1E1B1E1C1E192A000E1A221B221C220D
:1076CA0019C01FF01AC020F01BC021F01CC022F004
:1076DA0077EF3BF015C01FF016C020F017C021F05D
:1076EA0018C022F01550161017101810D8A480EFE1
:1076FA003BF082EF3BF08CEF3BF0000E156E000E74
:10770A00166E000E176E000E186E1DEF3CF0960EE8
:10771A001E6E96EF3BF01E2AD8902232213220327A
:10772A001F32000E1F14196E000E20141A6E000E5E
:10773A0021141B6EFE0E22141C6E19501A101B10F7
:10774A001C10D8A4ABEF3BF0ADEF3BF090EF3BF051
:10775A00BBEF3BF01E2A010E1F26000E202221221B
:10776A002222D8902232213220321F32000E1F14D8
:10777A00196E000E20141A6E000E21141B6EFF0ED5
:10778A0022141C6E19501A101B101C10D8A4D0EF0A
:10779A003BF0D2EF3BF0AFEF3BF0DAEF3BF01E06E7
:1077AA00D8901F3620362136223621BEDFEF3BF035
:1077BA00E1EF3BF0E9EF3BF0020E1E60E7EF3BF032
:1077CA00E9EF3BF0D4EF3BF01EB0EEEF3BF0F0EF09
:1077DA003BF0F1EF3BF0219ED8901E321EC019F00B
:1077EA001A6A1B6A1C6A19C01CF01B6A1A6A196A8F
:1077FA0019501F121A5020121B5021121C5022120B
:10780A001D50D8B40BEF3CF00DEF3CF015EF3CF0F7
:10781A0018BE14EF3CF012EF3CF015EF3CF0228E4C
:10782A001FC015F020C016F021C017F022C018F0B2
:10783A0012002650800B336E265026243A6E25AE4F
:10784A0029EF3CF02BEF3CF02CEF3CF03A803A5019
:10785A00D8B432EF3CF034EF3CF049EF3CF03A2830
:10786A00D8A43AEF3CF03CEF3CF044EF3CF0000E79
:10787A00236E000E246E000E256E000E266E258ED7
:10788A00000E266E51EF3CF0000E236E000E246EA1
:10789A00000E256E000E266E2A50800B331A2A50CF
:1078AA002A243B6E29AE5CEF3CF05EEF3CF05FEFC2
:1078BA003CF03B803B50D8B465EF3CF067EF3CF0BE
:1078CA007CEF3CF03B28D8A46DEF3CF06FEF3CF026
:1078DA0077EF3CF0000E276E000E286E000E296E20
:1078EA00000E2A6E298E000E2A6E84EF3CF0000EDE
:1078FA00276E000E286E000E296E000E2A6E275083
:10790A00281029102A10D8A48DEF3CF08FEF3CF0F4
:10791A00A7EF3CF0000E236E000E246E000E256EBB
:10792A00000E266E800E25127F0E26123350261266
:10793A0023C023F024C024F025C025F026C026F059
:10794A00EAEF3DF03A50D8A4ADEF3CF0AFEF3CF08F
:10795A00B9EF3CF0000E236E000E246E000E256E69
:10796A00000E266EEAEF3DF03B503AC02BF02C6A2F
:10797A002B5E000E2C5A7F0E2B24346E000E2C2008
:10798A00356E23C02FF024C030F025C031F026C058
:10799A0032F0000E236E000E246E000E256E000ECD
:1079AA00266E000E366E000E376E000E386E000E12
:1079BA00396E000E3B6E1AEF3DF03B50D8B4E8EF3B
:1079CA003CF0EAEF3CF001EF3DF0D8902F3630362C
:1079DA0031363236D890233624362536263639AE15
:1079EA00F9EF3CF0FBEF3CF0FCEF3CF02380D89041
:1079FA00363637363836393627502F5C28503058C5
:107A0A00295031582A503258D8A00EEF3DF010EFC5
:107A1A003DF019EF3DF0398C27502F5E2850305A2F
:107A2A002950315A2A50325A3B2A190E3B6420EF08
:107A3A003DF022EF3DF0E2EF3CF02F5030103110D4
:107A4A003210D8B42BEF3DF02DEF3DF045EF3DF06D
:107A5A00368045EF3DF0D890233624362536263633
:107A6A0039AE3AEF3DF03CEF3DF03DEF3DF023807B
:107A7A00D89036363736383639363406D8A03506F1
:107A8A0025AE4AEF3DF04CEF3DF030EF3DF0000EF1
:107A9A003B6E39AE53EF3DF055EF3DF079EF3DF0D7
:107AAA00FF0E36142B6EFF0E37142C6EFF0E381491
:107ABA002D6E7F0E39142E6E2B502C102D102E1079
:107ACA00D8B46AEF3DF06CEF3DF070EF3DF0010E77
:107ADA003B6E79EF3DF023A075EF3DF077EF3DF077
:107AEA0079EF3DF06CEF3DF03B50D8B47FEF3DF0BD
:107AFA0081EF3DF0A5EF3DF0010E2326000E242272
:107B0A002522262226A08CEF3DF08EEF3DF0A5EF30
:107B1A003DF023C02BF024C02CF025C02DF026C048
:107B2A002EF02E342E322D322C322B322BC023F053
:107B3A002CC024F02DC025F02EC026F0344A352A58
:107B4A0035BEB0EF3DF0355008E13428D8A0B0EF8B
:107B5A003DF0B2EF3DF0BDEF3DF0000E356E3468FA
:107B6A00000E236E000E246E000E256E000E266E89
:107B7A0035BECAEF3DF0355006E13404D8B0C8EF3F
:107B8A003DF0CAEF3DF0D8EF3DF0000E356E000E25
:107B9A00346E000E236E000E246E000E256E000E4B
:107BAA00266E000E336E34C03AF03AA0DFEF3DF095
:107BBA00E1EF3DF0E4EF3DF0258EE5EF3DF0259E47
:107BCA00D8903A30266E9BEF3CF012003F50800B63
:107BDA00486E3F503F244E6E3EAEF6EF3DF0F8EF52
:107BEA003DF0F9EF3DF04E804E50D8B4FFEF3DF036
:107BFA0001EF3EF014EF3EF04E28D8A407EF3EF016
:107C0A0009EF3EF011EF3EF0000E3C6E000E3D6EA5
:107C1A00000E3E6E000E3F6E3E8E1CEF3EF0000ED2
:107C2A003C6E000E3D6E000E3E6E000E3F6E4350DF
:107C3A00800B481A435043244D6E42AE27EF3EF064
:107C4A0029EF3EF02AEF3EF04D804D50D8B430EF88
:107C5A003EF032EF3EF045EF3EF04D28D8A438EF23
:107C6A003EF03AEF3EF042EF3EF0000E406E000E5C
:107C7A00416E000E426E000E436E428E4DEF3EF094
:107C8A00000E406E000E416E000E426E000E436EF4
:107C9A004D50D8B453EF3EF055EF3EF05DEF3EF055
:107CAA004E50D8A45BEF3EF05DEF3EF067EF3EF03A
:107CBA00000E3C6E000E3D6E000E3E6E000E3F6ED4
:107CCA00FFEF3FF042503C02F3CF53F0F4CF54F0B1
:107CDA005350496E4A6A4B6A4C6A54504F6E506A06
:107CEA00516A526A41503D02F3CF53F0F4CF54F037
:107CFA0053504926000E4A224B224C2254504F26FA
:107D0A00000E50225122522240503E02F3CF53F02D
:107D1A00F4CF54F053504926000E4A224B224C22EB
:107D2A0054504F26000E5022512252224BC04CF082
:107D3A004AC04BF049C04AF0496A40503D02F3CF6D
:107D4A0053F0F4CF54F05350492654504A22000EAF
:107D5A004B22000E4C2241503C02F3CF53F0F4CF99
:107D6A0054F05350492654504A22000E4B22000E1A
:107D7A004C224BC04CF04AC04BF049C04AF0496A09
:107D8A0040503C02F3CF53F0F4CF54F053504926FD
:107D9A0054504A22000E4B22000E4C2242503D0201
:107DAA00F3CF53F0F4CF54F053504F26545050228F
:107DBA00000E5122000E522241503E02F3CF53F0E0
:107DCA00F4CF54F053504F2654505022000E5122F3
:107DDA00000E522242503E02F3CF53F0F4CF54F039
:107DEA005350446E5450456E466A476A46C047F03F
:107DFA0045C046F044C045F0446A44504F264550B9
:107E0A005022465051224750522249C044F04AC09B
:107E1A0045F04BC046F04CC047F0190E1AEF3FF040
:107E2A00D8904732463245324432E82E15EF3FF0B9
:107E3A0044504F2645505022465051224750522214
:107E4A004BC04CF04AC04BF049C04AF0496A4D5009
:107E5A004EC044F0456A4426000E4522820E442450
:107E6A00536EFF0E4520546E50EF3FF0D8904F36B8
:107E7A005036513652364CAE45EF3FF047EF3FF0A1
:107E8A0048EF3FF04F80D89049364A364B364C3649
:107E9A005306D8A0540651AE55EF3FF057EF3FF0C6
:107EAA003BEF3FF0000E4D6E4CAE5EEF3FF060EFE1
:107EBA003FF084EF3FF0FF0E4914446EFF0E4A1460
:107ECA00456EFF0E4B14466E7F0E4C14476E44509F
:107EDA00451046104710D8B475EF3FF077EF3FF0E2
:107EEA007BEF3FF0010E4D6E84EF3FF04FA080EF25
:107EFA003FF082EF3FF084EF3FF077EF3FF04D50D5
:107F0A00D8B48AEF3FF08CEF3FF0B0EF3FF0010EAC
:107F1A004F26000E50225122522252A097EF3FF0D4
:107F2A0099EF3FF0B0EF3FF04FC044F050C045F03A
:107F3A0051C046F052C047F04734473246324532C4
:107F4A00443244C04FF045C050F046C051F047C0DB
:107F5A0052F0534A542A54BEBBEF3FF0545008E142
:107F6A005328D8A0BBEF3FF0BDEF3FF0C7EF3FF07B
:107F7A00000E4F6E000E506E800E516E7F0E526EC6
:107F8A00F5EF3FF054BED4EF3FF0545006E15304EE
:107F9A00D8B0D2EF3FF0D4EF3FF0E0EF3FF0000E61
:107FAA004F6E000E506E000E516E000E526E000E95
:107FBA00486EF5EF3FF053C04EF0FF0E4F16FF0E1E
:107FCA0050167F0E5116000E52164EA0EFEF3FF0DC
:107FDA00F1EF3FF0F2EF3FF0518ED8904E30526EF3
:107FEA00485052124FC03CF050C03DF051C03EF0D4
:067FFA0052C03FF012002E
:020000040020DA
:08000000FFFFFFFFFFFFFFFF00
:020000040030CA
:0E000000FF021F1FFF8385FF0FC00FE00F40A0
:00000001FF
