:0400000021EF3FF0BD
:107E42000001A3EF3FF053EC3FF0C582120053EC68
:107E52003FF0C580120053EC3FF0C584120053EC92
:107E62003FF0C58AC5881200026E53EC3FF002C093
:107E7200C9FF53EC3FF0C5501200C586C7A044EFBE
:107E82003FF046EF3FF03FEF3FF0C9501200280E9F
:107E9200C66E000EC56E000EC76E130EC86E9486B7
:107EA20094881200C7B458EF3FF05AEF3FF053EFF7
:107EB2003FF0C5CF01F01F0E0116D8A463EF3FF0CB
:107EC20065EF3FF053EF3FF0120028EC3FF0A20EB7
:107ED20035EC3FF00450086E096A085035EC3FF06B
:107EE200035035EC3FF0055035EC3FF02CEC3FF001
:107EF200340E076EF20EE82EFED7072EFCD71200C4
:107F020028EC3FF0A20E35EC3FF00450066E076AF3
:107F1200065035EC3FF0035035EC3FF024EC3FF0D7
:107F2200A30E35EC3FF03EEC3FF0056E0550066EB9
:107F3200076A30EC3FF02CEC3FF006C003F007C0BC
:107F420004F01200000E936E000E816E060EC16EDA
:107F520048EC3FF0000E0F6E000E0E6E000E0D6E1E
:107F6200030E0C6E0EC003F00FC004F00CC005F03F
:107F72000DC006F066EC3FF04E0E0A6EEB0EE82ED8
:107F8200FED70A2EFCD700F0D8900C340C6E0D34BC
:107F92000D6E0E4A0F2A0F5009E1080E0E5CD8A092
:107FA200D5EF3FF0D7EF3FF0B3EF3FF0000E0F6E8B
:107FB200000E0E6E0EC003F00FC004F081EC3FF015
:107FC2000350816E030E0B6E080E0A6E770EE82EBA
:107FD200FED70A2EFCD70B2EFAD700F00E4A0F2A34
:107FE2000F5009E1080E0E5CD8A0FAEF3FF0FCEF4B
:0E7FF2003FF0DBEF3FF0D7EF3FF000EF00F085
:020000040020DA
:08000000FFFFFFFFFFFFFFFF00
:020000040030CA
:0E000000FF021F1FFF8385FF0FC00FE00F40A0
:00000001FF
