:040000000FEF04F00A
:10060000002048656C6C6F20576F726C6421004845
:100610006F616E6756696E685875616E00204C4355
:100620004420446973706C61790053746172740082
:0106300000C9
:100632000A6E020E056020EF03F022EF03F050EF86
:1006420003F00F0E0A6428EF03F02AEF03F02CEFF9
:1006520003F050EF03F00504D8B432EF03F034EFA7
:1006620003F03EEF03F0800E0AC006F0076A0610A0
:10067200086E0750096E46EF03F0C00E0AC006F07E
:10068200076A0610086E0750096E0850C6EC03F0A0
:100692000D0E066EFC0EE82EFED7062EFCD71200BB
:1006A200A9EC03F0010E056E060E066E81EC03F056
:1006B200010E056E080E19EC03F02A0E056E060EE9
:1006C200066E81EC03F0010EC6EC03F0000E056E1F
:1006D200020E19EC03F01D0E056E060E066E81EC7D
:1006E20003F0010E056E020E19EC03F00F0E056EFB
:1006F200060E066E81EC03F07DEF03F000EF00F0D2
:10070200000E096E94EF03F009500524076E000EE7
:100712000620086E07C0F6FF08C0F7FF0800F55074
:10072200E3EC03F0092A09500524076E000E0620A7
:10073200086E07C0F6FF08C0F7FF0800F550000971
:10074200D8A4A6EF03F0A8EF03F085EF03F01200A0
:10075200000E836E000E956E838E270E056EF50ECB
:10076200E82EFED7052EFCD700F0320EC6EC03F0C1
:10077200280EC6EC03F00C0EC6EC03F0010EC6EC1C
:1007820003F0060EC6EC03F01200046E0D0E036EAB
:10079200FC0EE82EFED7032EFCD7000E016E04508D
:1007A200F9EC03F00438F00B046E030E036E980E9E
:1007B200E82EFED7032EFCD7000E016E0450F9EC92
:1007C20003F01200046E0D0E036EFC0EE82EFED72F
:1007D200032EFCD7010E016E0450F9EC03F004382D
:1007E200F00B046E010E016E0450F9EC03F01200DE
:1007F200026E02380F0B026E02500F0B026E835014
:10080200F00B836E83500210836E01B002D0839886
:1008120001D08388839A838C839C1200000EF86E29
:0A082200060EF76E000151EF03F01F
:020000040020DA
:08000000FFFFFFFFFFFFFFFF00
:020000040030CA
:0E000000FF081F1FFF8385FF0FC00FE00F409A
:00000001FF
