:040000003AEF0DF0D6
:10060000004469676974616C203A200054656D701C
:0B061000203A20002043002564000079
:10061C001250800B1B6E12501224216E11AE19EF6A
:10062C0003F01BEF03F01CEF03F021802150D8B432
:10063C0022EF03F024EF03F037EF03F02128D8A4C6
:10064C002AEF03F02CEF03F034EF03F0000E0F6EE3
:10065C00000E106E000E116E000E126E118E3FEF1A
:10066C0003F0000E0F6E000E106E000E116E000ED9
:10067C00126E1650800B1B1A16501624206E15AED7
:10068C004AEF03F04CEF03F04DEF03F020802050C5
:10069C00D8B453EF03F055EF03F068EF03F02028C4
:1006AC00D8A45BEF03F05DEF03F065EF03F0000EF1
:1006BC00136E000E146E000E156E000E166E158E57
:1006CC0070EF03F0000E136E000E146E000E156E1C
:1006DC00000E166E2050D8B476EF03F078EF03F0CE
:1006EC0080EF03F02150D8A47EEF03F080EF03F0ED
:1006FC008AEF03F0000E0F6E000E106E000E116EDE
:10070C00000E126E22EF05F015500F02F3CF26F0FB
:10071C00F4CF27F026501C6E1D6A1E6A1F6A2750E4
:10072C00226E236A246A256A14501002F3CF26F035
:10073C00F4CF27F026501C26000E1D221E221F224D
:10074C0027502226000E2322242225221350110288
:10075C00F3CF26F0F4CF27F026501C26000E1D22D6
:10076C001E221F2227502226000E2322242225225D
:10077C001EC01FF01DC01EF01CC01DF01C6A1350C3
:10078C001002F3CF26F0F4CF27F026501C2627506A
:10079C001D22000E1E22000E1F2214500F02F3CF3A
:1007AC0026F0F4CF27F026501C2627501D22000ED1
:1007BC001E22000E1F221EC01FF01DC01EF01CC0EA
:1007CC001DF01C6A13500F02F3CF26F0F4CF27F064
:1007DC0026501C2627501D22000E1E22000E1F2202
:1007EC0015501002F3CF26F0F4CF27F02650222616
:1007FC0027502322000E2422000E25221450110211
:10080C00F3CF26F0F4CF27F02650222627502322B0
:10081C00000E2422000E252215501102F3CF26F0D3
:10082C00F4CF27F02650176E2750186E196A1A6AE3
:10083C0019C01AF018C019F017C018F0176A175021
:10084C00222618502322195024221A5025221CC06B
:10085C0017F01DC018F01EC019F01FC01AF0190EA9
:10086C003DEF04F0D8901A32193218321732E82EB4
:10087C0038EF04F017502226185023221950242246
:10088C001A5025221EC01FF01DC01EF01CC01DF0EA
:10089C001C6A205021C017F0186A1726000E182267
:1008AC00820E1724266EFF0E1820276E73EF04F0AD
:1008BC00D89022362336243625361FAE68EF04F046
:1008CC006AEF04F06BEF04F02280D8901C361D36D2
:1008DC001E361F362606D8A0270624AE78EF04F065
:1008EC007AEF04F05EEF04F0000E206E1FAE81EF85
:1008FC0004F083EF04F0A7EF04F0FF0E1C14176E46
:10090C00FF0E1D14186EFF0E1E14196E7F0E1F1491
:10091C001A6E1750181019101A10D8B498EF04F05A
:10092C009AEF04F09EEF04F0010E206EA7EF04F096
:10093C0022A0A3EF04F0A5EF04F0A7EF04F09AEFC8
:10094C0004F02050D8B4ADEF04F0AFEF04F0D3EFC7
:10095C0004F0010E2226000E23222422252225A09B
:10096C00BAEF04F0BCEF04F0D3EF04F022C017F0A0
:10097C0023C018F024C019F025C01AF01A341A320A
:10098C0019321832173217C022F018C023F019C0D0
:10099C0024F01AC025F0264A272A27BEDEEF04F0E1
:1009AC00275008E12628D8A0DEEF04F0E0EF04F091
:1009BC00EAEF04F0000E226E000E236E800E246E01
:1009CC007F0E256E18EF05F027BEF7EF04F02750C9
:1009DC0006E12604D8B0F5EF04F0F7EF04F003EFCE
:1009EC0005F0000E226E000E236E000E246E000E1B
:1009FC00256E000E1B6E18EF05F026C021F0FF0EC1
:100A0C002216FF0E23167F0E2416000E251621A08B
:100A1C0012EF05F014EF05F015EF05F0248ED890C9
:100A2C002130256E1B50251222C00FF023C010F070
:100A3C0024C011F025C012F012001EC036F01FC0E9
:100A4C0037F020C038F021C039F022C03AF023C072
:100A5C003BF024C03CF025C03DF03DBE38EF05F026
:100A6C003BEF05F0010E3CEF05F0000E346E356ADD
:100A7C0034503510D8B445EF05F047EF05F057EF7B
:100A8C0005F03D1E3C1E3B1E3A1E391E381E371EFD
:100A9C00366C000E3722382239223A223B223C2275
:100AAC003D226CBE5CEF05F05EEF05F05FEF05F0EC
:100ABC006D926CBE6CEF05F06C5006E16B04D8B017
:100ACC006AEF05F06CEF05F072EF05F0000E316E79
:100ADC00010E306E76EF05F06BC030F06CC031F06B
:100AEC0069C032F06AC033F034503510D8A481EFAD
:100AFC0005F083EF05F08AEF05F06DA488EF05F0A3
:100B0C008AEF05F08DEF05F03206D8A03306000E03
:100B1C003F6E1F0E3E6E000E00019F6F12EF06F02F
:100B2C003E06D8A03F06800E3E24D96E000E3F2014
:100B3C00DA6E36C001F037C002F038C003F039C0AD
:100B4C0004F03AC005F03BC006F03CC007F03DC0D5
:100B5C0008F00A0E096E000E0A6E000E0B6E000EE7
:100B6C000C6E000E0D6E000E0E6E000E0F6E000E53
:100B7C00106E09EC09F001C026F002C027F003C08A
:100B8C0028F004C029F005C02AF006C02BF007C0DD
:100B9C002CF008C02DF026C013F028C014F070EC17
:100BAC000CF01350300FDF6E3006D8A03106320631
:100BBC00D8A0330636C001F037C002F038C003F0BD
:100BCC0039C004F03AC005F03BC006F03CC007F059
:100BDC003DC008F00A0E096E000E0A6E000E0B6E78
:100BEC00000E0C6E000E0D6E000E0E6E000E0F6ED3
:100BFC00000E106E45EC08F001C036F002C037F064
:100C0C0003C038F004C039F005C03AF006C03BF020
:100C1C0007C03CF008C03DF03FBE1DEF06F03F5052
:100C2C0008E13E04D8A01DEF06F01FEF06F04FEFD1
:100C3C0006F036503710381039103A103B103C1073
:100C4C003D10D8A42CEF06F02EEF06F096EF05F031
:100C5C0031BE3BEF06F0315006E13004D8B039EF2D
:100C6C0006F03BEF06F096EF05F033BE46EF06F0CC
:100C7C00335008E13204D8A046EF06F048EF06F0F6
:100C8C004FEF06F06DB24DEF06F04FEF06F096EF1A
:100C9C0005F034503510D8A456EF06F058EF06F096
:100CAC005FEF06F06DA45DEF06F05FEF06F07DEFF1
:100CBC0006F03E06D8A03F0634503510D8A469EF94
:100CCC0006F06BEF06F071EF06F0000E2F6E2B0E98
:100CDC002E6E75EF06F0000E2F6E2D0E2E6E800E02
:100CEC003E24D96E000E3F20DA6E2EC0DFFF1CC0F2
:100CFC0011F01DC012F0800E3E24136E000E3F202A
:100D0C00146E32C015F033C016F048EC0BF011C065
:100D1C001CF012C01DF01200096E0950D8B499EFE6
:100D2C0006F09BEF06F0BDEF06F004BEA2EF06F056
:100D3C00A0EF06F0BDEF06F001C005F002C006F012
:100D4C0003C007F004C008F0051E061E071E081E8F
:100D5C00052A000E06220722082205C00BF006C049
:100D6C000CF007C00DF008C00EF0C5EF06F001C086
:100D7C000BF002C00CF003C00DF004C00EF00150DB
:100D8C00021003100410D8A4CEEF06F0D0EF06F03A
:100D9C00DAEF06F0000E016E000E026E000E036E0E
:100DAC00000E046E6BEF07F0960E0A6EE4EF06F081
:100DBC000A2AD8900E320D320C320B32000E0B1464
:100DCC00056E000E0C14066E000E0D14076EFE0E52
:100DDC000E14086E0550061007100810D8A4F9EF71
:100DEC0006F0FBEF06F0DEEF06F009EF07F00A2A3B
:100DFC00010E0B26000E0C220D220E22D8900E3264
:100E0C000D320C320B32000E0B14056E000E0C144E
:100E1C00066E000E0D14076EFF0E0E14086E0550B4
:100E2C00061007100810D8A41EEF07F020EF07F0EB
:100E3C00FDEF06F028EF07F00A06D8900B360C36BB
:100E4C000D360E360DBE2DEF07F02FEF07F037EFF6
:100E5C0007F0020E0A6035EF07F037EF07F022EFCC
:100E6C0007F00AB03CEF07F03EEF07F03FEF07F05A
:100E7C000D9ED8900A320AC005F0066A076A086A05
:100E8C0005C008F0076A066A056A05500B12065081
:100E9C000C1207500D1208500E120950D8B459EF0D
:100EAC0007F05BEF07F063EF07F004BE62EF07F0AB
:100EBC0060EF07F063EF07F00E8E0BC001F00CC073
:100ECC0002F00DC003F00EC004F0120042C0D9FFB6
:100EDC0043C0DAFFDECFF6FFDDCFF7FF0800F55099
:100EEC00250AD8A47CEF07F07EEF07F029EF08F075
:100EFC0042C0D9FF43C0DAFFDE2A000EDD22000E0D
:100F0C006A6E000E696E69C06DF06AC06EF06B6837
:100F1C006C6842C0D9FF43C0DAFFDECFF6FFDDCFED
:100F2C00F7FF0800F550640AD8B49FEF07F0A1EF63
:100F3C0007F0B3EF07F042C0D9FF43C0DAFFDECFB2
:100F4C00F6FFDDCFF7FF0800F550690AD8A4B1EF22
:100F5C0007F0B3EF07F0F3EF07F042C0D9FF43C03F
:100F6C00DAFFDE2A000EDD2244C0D9FF45C0DAFFCD
:100F7C00DFCF46F0020EDE26DFCF47F0000EDD227B
:100F8C0046C0D9FF47C0DAFFDECF48F0DDCF49F0CD
:100F9C00000E49BEFF0E4A6E4B6E4C6E4D6E4E6E81
:100FAC004F6E40C01CF041C01DF048C01EF049C03F
:100FBC001FF04AC020F04BC021F04CC022F04DC0B5
:100FCC0023F04EC024F04FC025F023EC05F01CC0DC
:100FDC0040F01DC041F044EF08F042C0D9FF43C0BF
:100FEC00DAFFDECFF6FFDDCFF7FF0800F550250A5C
:100FFC00D8A403EF08F005EF08F01CEF08F042C08E
:10100C00D9FF43C0DAFFDE2A000EDD22000E026E8D
:10101C00250E016E40C003F041C004F0E3EC0AF071
:10102C00000E416E010E406E44EF08F042C0D9FF35
:10103C0043C0DAFFDE2A000EDD22000E416E000EE8
:10104C00406E44EF08F042C0D9FF43C0DAFFDECF58
:10105C00F6FFDDCFF7FF0800F550016E026A40C0C5
:10106C0003F041C004F0E3EC0AF042C0D9FF43C0E6
:10107C00DAFFDE2A000EDD2216EF08F01200000E59
:10108C00126E10BE4EEF08F04CEF08F060EF08F057
:10109C00101E0F1E0E1E0D1E0C1E0B1E0A1E096CA2
:1010AC00000E0A220B220C220D220E220F221022DD
:1010BC00010E126E08BE67EF08F065EF08F079EFCD
:1010CC0008F0081E071E061E051E041E031E021E27
:1010DC00016C000E022203220422052206220722A2
:1010EC000822010E121A20EE13F0070EDE6AE80633
:1010FC00FDE209500A100B100C100D100E100F1001
:10110C001010D8B48CEF08F08EEF08F0E0EF08F078
:10111C00010E116E9CEF08F0D89009360A360B368A
:10112C000C360D360E360F361036112A10AEA1EFD6
:10113C0008F0A3EF08F092EF08F0D89013361436AD
:10114C00153616361736183619361A360950015C0C
:10115C000A5002580B5003580C5004580D500558A7
:10116C000E5006580F50075810500858D8A0C1EF11
:10117C0008F0C3EF08F0D4EF08F00950015E0A50F4
:10118C00025A0B50035A0C50045A0D50055A0E506B
:10119C00065A0F50075A1050085A1380D890103224
:1011AC000F320E320D320C320B320A320932112E42
:1011BC00A3EF08F01250D8B4E6EF08F0E8EF08F00F
:1011CC00F8EF08F01A1E191E181E171E161E151EF3
:1011DC00141E136C000E142215221622172218222C
:1011EC0019221A2213C001F014C002F015C003F02A
:1011FC0016C004F017C005F018C006F019C007F0AF
:10120C001AC008F01200000E126E08BE12EF09F0A0
:10121C0010EF09F024EF09F0081E071E061E051E2C
:10122C00041E031E021E016C000E02220322042265
:10123C000522062207220822010E126E10BE2BEF89
:10124C0009F029EF09F03BEF09F0101E0F1E0E1EDE
:10125C000D1E0C1E0B1E0A1E096C000E0A220B2200
:10126C000C220D220E220F22102209500A100B10F4
:10127C000C100D100E100F101010D8B448EF09F010
:10128C004AEF09F092EF09F0010E116E58EF09F0D8
:10129C00D89009360A360B360C360D360E360F360C
:1012AC001036112A10AE5DEF09F05FEF09F04EEF2A
:1012BC0009F00950015C0A5002580B5003580C50AD
:1012CC0004580D5005580E5006580F500758105022
:1012DC000858D8A074EF09F076EF09F086EF09F002
:1012EC000950015E0A50025A0B50035A0C50045A12
:1012FC000D50055A0E50065A0F50075A1050085AE6
:10130C00D89010320F320E320D320C320B320A32B0
:10131C000932112E5FEF09F01250D8B498EF09F092
:10132C009AEF09F0AAEF09F0081E071E061E051E0B
:10133C00041E031E021E016C000E02220322042254
:10134C00052206220722082201C001F002C002F089
:10135C0003C003F004C004F005C005F006C006F09D
:10136C0007C007F008C008F01200E5EC0CF04BECDD
:10137C000DF0000E056E0C0E066E060E076E010EBD
:10138C0090EC0CF0000E056E010E066E060E076E4C
:10139C00020E90EC0CF0CBEC0CF001C0BAF002C0D9
:1013AC00BBF0BAC001F0BBC002F0000E02BEFF0ED3
:1013BC00036E046E010E92EC06F001C00FF002C039
:1013CC0010F003C011F004C012F00A0E136E280EB8
:1013DC00146EA00E156E3B0E166E0EEC03F00FC0C5
:1013EC00B4F010C0B5F011C0B6F012C0B7F0000EDA
:1013FC00136E000E146EC80E156E420E166EB4C02F
:10140C000FF0B5C010F0B6C011F0B7C012F00EEC72
:10141C0003F00FC028F010C029F011C02AF012C040
:10142C002BF060EC0AF028C0B8F029C0B9F0AA0E75
:10143C00586E000E596E170E5A6E060E5B6EB8C0C3
:10144C005CF0B9C05DF007EC0CF0A00E586E000E0D
:10145C00596E170E5A6E060E5B6EBAC05CF0BBC0AE
:10146C005DF007EC0CF0AA0E0D6E000E0E6E140E55
:10147C000F6E060E106E27EC0DF0050E056EAA0E03
:10148C00066E000E076E010E90EC0CF0090E056E48
:10149C00A00E066E000E076E020E90EC0CF0820E83
:1014AC00666EDE0EE82EFED7662EFCD7D1EF09F065
:1014BC0000EF00F02A342B34316E3150D8A469EF90
:1014CC000AF06BEF0AF075EF0AF0000E286E000EB2
:1014DC00296E000E2A6E000E2B6EE2EF0AF028C069
:1014EC002CF029C02DF02AC02EF02BC02FF0200E8E
:1014FC0085EF0AF0D8902F322E322D322C32E82E76
:10150C0080EF0AF02C50306E2A8EFF0E2816FF0E3C
:10151C002916FF0E2A16000E2B16960E315E31BEC2
:10152C009CEF0AF09AEF0AF0B2EF0AF03150800A01
:10153C00970FD8B0A4EF0AF0A6EF0AF0A8EF0AF0C4
:10154C006BEF0AF0D8902B322A3229322832313EF6
:10155C00A8EF0AF0CAEF0AF01F0E3164B8EF0AF0D8
:10156C00BAEF0AF0C2EF0AF06BEF0AF0D890283607
:10157C0029362A362B3631063150D8A4C8EF0AF05A
:10158C00CAEF0AF0BCEF0AF03050D8B4D0EF0AF032
:10159C00D2EF0AF0DAEF0AF02B1E2A1E291E286C55
:1015AC00000E29222A222B2228C028F029C029F03B
:1015BC002AC02AF02BC02BF0120003500410D8B410
:1015CC00EAEF0AF0ECEF0AF0F5EF0AF00350041022
:1015DC00D8A4F3EF0AF0F5EF0AF0FAEF0AF0015095
:1015EC0056EC0DF047EF0BF020EE04F00350D9262B
:1015FC000450DA22DE50DE10D8B407EF0BF009EFFE
:10160C000BF024EF0BF020EE04F00350D92604501D
:10161C00DA2210EE02F00350E1260450E222DE50F2
:10162C00E65CE650800A096EDE50800A0958D8B094
:10163C0022EF0BF024EF0BF047EF0BF020EE02F053
:10164C000350D9260450DA22DECF05F0DDCF06F0A8
:10165C0003C0D9FF04C0DAFFDECF07F0DDCF08F0FE
:10166C0005500724D96E06500820DA6E01C0DFFF42
:10167C0020EE02F00350D9260450DA22DE2A000EA6
:10168C00DD2212006DA04DEF0BF04FEF0BF059EF78
:10169C000BF013C00AF014C00BF011C00CF012C008
:1016AC000DF02EEC0CF016BE5EEF0BF060EF0BF0B5
:1016BC0066EF0BF015C01AF016C01BF06AEF0BF0BA
:1016CC00000E1B6E000E1A6E000E196E000E186EB8
:1016DC007CEF0BF0000E026E200E016E11C003F0B9
:1016EC0012C004F0E3EC0AF0184A192A1A50185CDC
:1016FC001950800A176E1B50800A1758D8A089EF12
:10170C000BF08BEF0BF070EF0BF06DB090EF0BF06C
:10171C0092EF0BF09CEF0BF013C00AF014C00BF01F
:10172C0011C00CF012C00DF02EEC0CF013C001F037
:10173C0014C002F0B0EC0CF01A500124116E1B50C6
:10174C000220126E120052C056F053C057F0000E19
:10175C00686E000E676EC5EF0BF050C040F051C0C4
:10176C0041F0560E426E000E436E54C044F055C00C
:10177C0045F06CEC07F0405067264150682256C08B
:10178C00F6FF57C0F7FF0800F5500009D8A4D1EFB9
:10179C000BF0D3EF0BF0B3EF0BF067C050F068C059
:1017AC0051F01200EEEF0BF003C0F6FF04C0F7FF90
:1017BC00F86A050EF76403D00800F55005D0F6CF93
:1017CC00E1FFF7CFE2FFE750FDEC0CF0034A042AEF
:1017DC0003C0F6FF04C0F7FFF86A050EF76403D0E8
:1017EC000800F55005D0F6CFE1FFF7CFE2FFE75048
:1017FC000009D8A404EF0CF006EF0CF0DAEF0BF0B4
:10180C0012005C0E5E6E000E5F6E58C060F059C028
:10181C0061F0000E636E000E626E000E656E000EBF
:10182C00646E600E506E000E516E5AC052F05BC06A
:10183C0053F05E0E546E000E556EA9EC0BF0625018
:10184C005824D96E63505920DA6E000EDF6E1200E8
:10185C00000E106E000E0F6E3FEF0CF00EC001F07C
:10186C00026A0CC003F00DC004F0E3EC0AF00F4A5E
:10187C00102A0F500A24D96E10500B20DA6EDF504C
:10188C000E6E0E50D8A44DEF0CF04FEF0CF034EF61
:10189C000CF0120007C009F008C00AF005C00BF0EC
:1018AC0006C00CF009C0F6FF0AC0F7FF094A0A2A65
:1018BC000BC0D9FF0CC0DAFF0B4A0C2A0800F5CF7D
:1018CC00DFFFDF50D8A46DEF0CF06FEF0CF058EF8A
:1018DC000CF0120014BE7DEF0CF0145006E1130452
:1018EC00D8B07BEF0CF07DEF0CF08BEF0CF013C04D
:1018FC0015F014C016F0151E161E154A162A15C022
:10190C0013F016C014F08FEF0CF013C013F014C0CA
:10191C0014F01200086E020E086097EF0CF099EFAD
:10192C000CF0A2EF0CF005500F0B8009096E09505A
:10193C0012EC0DF0A9EF0CF005500F0BC009096E5D
:10194C00095012EC0DF006C003F007C004F0D8ECFF
:10195C000BF0120001C003F002C004F0B8EF0CF061
:10196C00014A022A01C0D9FF02C0DAFFDF50D8A415
:10197C00C2EF0CF0C4EF0CF0B6EF0CF00350015CAE
:10198C00016E04500258026E1200010EC26EC28229
:10199C00C2B2D3EF0CF0D5EF0CF0CEEF0CF0C3507D
:1019AC00C4CF03F0046A03C004F0036A0310056E8D
:1019BC000450066E05C001F006C002F01200000EC5
:1019CC00936E000E956E0D0E036EFC0EE82EFED778
:1019DC00032EFCD7380E12EC0DF0010E12EC0DF0AC
:1019EC00060E12EC0DF00C0E12EC0DF01200026E45
:1019FC0002C081FF83808382030E016E980EE82E55
:101A0C00FED7012EFCD78392080E016ECA0EE82E6B
:101A1C00FED7012EFCD71200026E02C081FF83900C
:101A2C008382030E016E980EE82EFED7012EFCD792
:101A3C008392080E016ECA0EE82EFED7012EFCD73B
:101A4C0012000DC001F00EC002F0B0EC0CF0015011
:101A5C000D24056E02500E20066E0FC007F010C04C
:101A6C0008F050EC0CF0120000EE80F0200EEE6A44
:101A7C00E806FDE100EE67F0080EEE6AE806FDE10F
:101A8C00000EF86E0001BBEF09F0010E926E0B0E0A
:101A9C00C16E920EC06E000EC46E000EC36E1200AC
:021AAC00120026
:020000040020DA
:08000000FFFFFFFFFFFFFFFF00
:020000040030CA
:0E000000FF081F1FFF8385FF0FC00FE00F409A
:00000001FF
