:0400000041EF09F0D3
:05060000004856000057
:100606002B50800B346E2B502B24366E2AAE0EEFF9
:1006160003F010EF03F011EF03F036803650D8B434
:1006260017EF03F019EF03F02EEF03F03628D8A4E6
:100636001FEF03F021EF03F029EF03F0000E286E01
:10064600000E296E000E2A6E000E2B6E2A8E000EEC
:100656002B6E36EF03F0000E286E000E296E000E8C
:100666002A6E000E2B6E2F50800B356E34503518C7
:10067600D8B440EF03F042EF03F043EF03F0348CBD
:100686002F502F24356E2EAE4BEF03F04DEF03F0B7
:100696004EEF03F035803550D8B454EF03F056EFE3
:1006A60003F06BEF03F03528D8A45CEF03F05EEFA0
:1006B60003F066EF03F0000E2C6E000E2D6E000E9A
:1006C6002E6E000E2F6E2E8E000E2F6E73EF03F021
:1006D600000E2C6E000E2D6E000E2E6E000E2F6E6E
:1006E6003650355CD8B07AEF03F07CEF03F0A3EF19
:1006F60003F034AC81EF03F083EF03F085EF03F0F2
:10070600800E341A36C037F035C036F037C035F0B3
:1007160028C037F02CC028F037C02CF029C037F09D
:100726002DC029F037C02DF02AC037F02EC02AF090
:1007360037C02EF02BC037F02FC02BF037C02FF06C
:10074600000E376E365035C030F0316A305E000E1E
:10075600315A31BEB8EF03F0315009E11A0E305C60
:10076600D8A0B8EF03F0BAEF03F0F1EF03F028508A
:1007760029102A102B10D8A4C3EF03F0C6EF03F0FC
:10078600010EC7EF03F0000E376E000E286E000E46
:10079600296E000E2A6E000E2B6E35C036F0FAEF6B
:1007A60003F037A0D9EF03F0DBEF03F0E1EF03F03E
:1007B600D89037300109376EE3EF03F0D89037321F
:1007C60028A0E8EF03F0EAEF03F0EBEF03F0378E33
:1007D6002B342B322A3229322832362A3550365CCF
:1007E600D8A0F8EF03F0FAEF03F0D4EF03F034BC2F
:1007F600FFEF03F001EF04F041EF04F03650D8A408
:1008060007EF04F009EF04F013EF04F0000E286E72
:10081600000E296E000E2A6E000E2B6E62EF05F09A
:100826002C5028262D5029222E502A222F502B229A
:100836002BA020EF04F022EF04F0CEEF04F037A057
:1008460027EF04F029EF04F02FEF04F0D8903730AB
:100856000109376E31EF04F0D890373228A036EF11
:1008660004F038EF04F039EF04F0378E2B342B32D6
:100876002A3229322832362ACEEF04F02C50285C50
:100886002D5029582E502A582B50800A306E2F5042
:10089600800A3058D8B052EF04F054EF04F07FEFDE
:1008A60004F028502C5C306E29502D58316E2A5099
:1008B6002E58326E2B502F58336EFF0E3024286E72
:1008C600FF0E3120296EFF0E32202A6EFF0E3320D6
:1008D6002B6E800E341A376C3750D8A475EF04F09F
:1008E60077EF04F087EF04F0010E2826000E292288
:1008F6002A222B2287EF04F02C50285E2D50295AED
:100906002E502A5A2F502B5A285029102A102B10B5
:10091600D8A490EF04F092EF04F0C7EF04F037503C
:10092600D8A498EF04F09AEF04F0C7EF04F0000E95
:10093600286E000E296E000E2A6E000E2B6E62EFD8
:1009460005F0D890283629362A362B3637AEAEEF44
:1009560004F0B0EF04F0B1EF04F0288037A0B6EF52
:1009660004F0B8EF04F0BCEF04F0D8803736BEEFE1
:1009760004F0D89037363650D8B4C4EF04F0C6EF3A
:1009860004F0C7EF04F036062AAECCEF04F0CEEF43
:1009960004F0A4EF04F0000E356E37AED5EF04F088
:1009A600D7EF04F0EFEF04F037C030F07F0E3016CB
:1009B600D8B4E0EF04F0E2EF04F0E6EF04F0010E45
:1009C600356EEFEF04F028A0EBEF04F0EDEF04F046
:1009D600EFEF04F0E2EF04F03550D8B4F5EF04F091
:1009E600F7EF04F022EF05F0010E2826000E29226B
:1009F6002A222B222BA002EF05F004EF05F022EFAE
:100A060005F028C030F029C031F02AC032F02BC0E2
:100A160033F03334333232323132303230C028F0B0
:100A260031C029F032C02AF033C02BF03628D8B4B2
:100A36001FEF05F021EF05F022EF05F0362A3628E4
:100A4600D8B428EF05F02AEF05F032EF05F036505E
:100A5600D8A430EF05F032EF05F044EF05F0000EB4
:100A6600286E000E296E000E2A6E000E2B6E365072
:100A7600D8A440EF05F042EF05F044EF05F0000E74
:100A8600346E36A049EF05F04BEF05F04EEF05F05A
:100A96002A8E4FEF05F02A9ED89036302B6E34AE54
:100AA60057EF05F059EF05F05AEF05F02B8E28C0E9
:100AB60028F029C029F02AC02AF02BC02BF01200FA
:100AC6001250800B1F6E12501224266E11AE6EEF5E
:100AD60005F070EF05F071EF05F026802650D8B4CA
:100AE60077EF05F079EF05F08EEF05F02628D8A40C
:100AF6007FEF05F081EF05F089EF05F0000E0F6E30
:100B0600000E106E000E116E000E126E118E000E8B
:100B1600126E96EF05F0000E0F6E000E106E000EB0
:100B2600116E000E126E1650800B1F1A16501624E8
:100B3600276E15AEA1EF05F0A3EF05F0A4EF05F0C3
:100B460027802750D8B4AAEF05F0ACEF05F0C1EF27
:100B560005F02728D8A4B2EF05F0B4EF05F0BCEFF6
:100B660005F0000E136E000E146E000E156E000ECC
:100B7600166E158E000E166EC9EF05F0000E136E7A
:100B8600000E146E000E156E000E166E1350141025
:100B960015101610D8A4D2EF05F0D4EF05F0ECEF3F
:100BA60005F0000E0F6E000E106E000E116E000E98
:100BB600126E800E11127F0E12121F5012120FC0EB
:100BC6000FF010C010F011C011F012C012F02FEF8C
:100BD60007F02650D8A4F2EF05F0F4EF05F0FEEF8B
:100BE60005F0000E0F6E000E106E000E116E000E58
:100BF600126E2FEF07F0275026C017F0186A175EFF
:100C0600000E185A7F0E1724206E000E1820216E33
:100C16000FC01BF010C01CF011C01DF012C01EF05A
:100C2600000E0F6E000E106E000E116E000E126E8C
:100C3600000E226E000E236E000E246E000E256E30
:100C4600000E276E5FEF06F02750D8B42DEF06F0A2
:100C56002FEF06F046EF06F0D8901B361C361D36F1
:100C66001E36D8900F3610361136123625AE3EEFA8
:100C760006F040EF06F041EF06F00F80D8902236DE
:100C860023362436253613501B5C14501C58155039
:100C96001D5816501E58D8A053EF06F055EF06F013
:100CA6005EEF06F0258C13501B5E14501C5A15502F
:100CB6001D5A16501E5A272A190E276465EF06F08C
:100CC60067EF06F027EF06F01B501C101D101E10D4
:100CD600D8B470EF06F072EF06F08AEF06F02280C5
:100CE6008AEF06F0D8900F3610361136123625AE3A
:100CF6007FEF06F081EF06F082EF06F00F80D890C6
:100D060022362336243625362006D8A0210611AEF3
:100D16008FEF06F091EF06F075EF06F0000E276EE6
:100D260025AE98EF06F09AEF06F0BEEF06F0FF0E3E
:100D36002214176EFF0E2314186EFF0E2414196E5C
:100D46007F0E25141A6E1750181019101A10D8B4E1
:100D5600AFEF06F0B1EF06F0B5EF06F0010E276E25
:100D6600BEEF06F00FA0BAEF06F0BCEF06F0BEEF3E
:100D760006F0B1EF06F02750D8B4C4EF06F0C6EF80
:100D860006F0EAEF06F0010E0F26000E10221122E1
:100D9600122212A0D1EF06F0D3EF06F0EAEF06F02A
:100DA6000FC017F010C018F011C019F012C01AF0D9
:100DB6001A341A3219321832173217C00FF018C007
:100DC60010F019C011F01AC012F0204A212A21BED3
:100DD600F5EF06F0215008E12028D8A0F5EF06F03F
:100DE600F7EF06F002EF07F0000E216E2068000E06
:100DF6000F6E000E106E000E116E000E126E21BEEA
:100E06000FEF07F0215006E12004D8B00DEF07F0F0
:100E16000FEF07F01DEF07F0000E216E000E206E9B
:100E2600000E0F6E000E106E000E116E000E126E8A
:100E3600000E1F6E20C026F026A024EF07F026EF36
:100E460007F029EF07F0118E2AEF07F0119ED890D0
:100E56002630126EE0EF05F01200096E0950D8B484
:100E660037EF07F039EF07F05BEF07F004BE40EF0E
:100E760007F03EEF07F05BEF07F001C005F002C098
:100E860006F003C007F004C008F0051E061E071E84
:100E9600081E052A000E06220722082205C00BF0AE
:100EA60006C00CF007C00DF008C00EF063EF07F0A7
:100EB60001C00BF002C00CF003C00DF004C00EF030
:100EC6000150021003100410D8A46CEF07F06EEF67
:100ED60007F078EF07F0000E016E000E026E000EAE
:100EE600036E000E046E09EF08F0960E0A6E82EF8E
:100EF60007F00A2AD8900E320D320C320B32000E51
:100F06000B14056E000E0C14066E000E0D14076E03
:100F1600FE0E0E14086E0550061007100810D8A411
:100F260097EF07F099EF07F07CEF07F0A7EF07F0D0
:100F36000A2A010E0B26000E0C220D220E22D89034
:100F46000E320D320C320B32000E0B14056E000EF3
:100F56000C14066E000E0D14076EFF0E0E14086EAE
:100F66000550061007100810D8A4BCEF07F0BEEF16
:100F760007F09BEF07F0C6EF07F00A06D8900B368E
:100F86000C360D360E360DBECBEF07F0CDEF07F063
:100F9600D5EF07F0020E0A60D3EF07F0D5EF07F0A2
:100FA600C0EF07F00AB0DAEF07F0DCEF07F0DDEF8D
:100FB60007F00D9ED8900A320AC005F0066A076A45
:100FC600086A05C008F0076A066A056A05500B122A
:100FD60006500C1207500D1208500E120950D8B4C4
:100FE600F7EF07F0F9EF07F001EF08F004BE00EFA6
:100FF60008F0FEEF07F001EF08F00E8E0BC001F0CF
:101006000CC002F00DC003F00EC004F01200033451
:1010160004340A6E0A50D8A413EF08F015EF08F04E
:101026001FEF08F0000E016E000E026E000E036E3A
:10103600000E046E8CEF08F001C005F002C006F049
:1010460003C007F004C008F0200E2FEF08F0D89078
:101056000832073206320532E82E2AEF08F005502C
:10106600096E038EFF0E0116FF0E0216FF0E031603
:10107600000E0416960E0A5E0ABE46EF08F044EF0E
:1010860008F05CEF08F00A50800A970FD8B04EEFD0
:1010960008F050EF08F052EF08F015EF08F0D8907E
:1010A60004320332023201320A3E52EF08F074EF84
:1010B60008F01F0E0A6462EF08F064EF08F06CEFA8
:1010C60008F015EF08F0D8900136023603360436DC
:1010D6000A060A50D8A472EF08F074EF08F066EF1B
:1010E60008F00950D8B47AEF08F07CEF08F084EFE6
:1010F60008F0041E031E021E016C000E02220322CB
:10110600042201C001F002C002F003C003F004C0D3
:1011160004F01200948C948E38C001F039C002F0AD
:101126003AC003F03BC004F0010E30EC07F001C0FA
:1011360013F002C014F003C015F004C016F0000E40
:101146000F6E240E106EF40E116E470E126E63ECC7
:1011560005F00FC028F010C029F011C02AF012C007
:101166002BF0000E2C6E000E2D6E800E2E6EBF0E16
:101176002F6E03EC03F028C03CF029C03DF02AC0D6
:101186003EF02BC03FF03CC001F03DC002F03EC037
:1011960003F03FC004F00AEC08F00150AF6EAC9EBD
:1011A600AC9CAC8AAC98AC94B896900EAB6E120020
:1011B600000E936E000E386E4B0E396E000E3A6EB0
:1011C600000E3B6E8DEC08F0580E36EC09F0550E0D
:1011D60036EC09F0410E36EC09F04E0E36EC09F00D
:1011E6000D0E36EC09F0010E026E060E036E0EECC5
:1011F60009F00D0E36EC09F0060E416E130E406E28
:10120600AE0EE82EFED7402EFCD7412EFAD7E7EFDA
:1012160008F000EF00F0000E066E21EF09F0065010
:101226000224046E000E0320056E04C0F6FF05C0FE
:10123600F7FF0800F55036EC09F0062A065002249E
:10124600046E000E0320056E04C0F6FF05C0F7FF0E
:101256000800F5500009D8A433EF09F035EF09F07E
:1012660012EF09F01200016E01C0ADFFACA23EEF15
:1012760009F040EF09F039EF09F01200000EF86EA0
:0A128600060EF76E0001DBEF08F022
:020000040020DA
:08000000FFFFFFFFFFFFFFFF00
:020000040030CA
:0E000000FF021F1FFF8385FF0FC00FE00F40A0
:00000001FF
