:0400000007EF00F016
:10000800478293ED05F079EF06F03150800B3A6E98
:10001800315031243C6E30AE14EF00F016EF00F092
:1000280017EF00F03C803C50D8B41DEF00F01FEFF4
:1000380000F034EF00F03C28D8A425EF00F027EFBB
:1000480000F02FEF00F0000E2E6E000E2F6E000E47
:10005800306E000E316E308E000E316E3CEF00F0C7
:10006800000E2E6E000E2F6E000E306E000E316EDA
:100078003550800B3B6E3A503B18D8B446EF00F031
:1000880048EF00F049EF00F03A8C355035243B6ECC
:1000980034AE51EF00F053EF00F054EF00F03B8026
:1000A8003B50D8B45AEF00F05CEF00F071EF00F06D
:1000B8003B28D8A462EF00F064EF00F06CEF00F08A
:1000C800000E326E000E336E000E346E000E356E6A
:1000D800348E000E356E79EF00F0000E326E000E91
:1000E800336E000E346E000E356E3C503B5CD8B05B
:1000F80080EF00F082EF00F0A9EF00F03AAC87EF54
:1001080000F089EF00F08BEF00F0800E3A1A3CC047
:100118003DF03BC03CF03DC03BF02EC03DF032C04E
:100128002EF03DC032F02FC03DF033C02FF03DC05F
:1001380033F030C03DF034C030F03DC034F031C051
:100148003DF035C031F03DC035F0000E3D6E3C50FD
:100158003BC036F0376A365E000E375A37BEBEEF00
:1001680000F0375009E11A0E365CD8A0BEEF00F057
:10017800C0EF00F0F7EF00F02E502F1030103110C4
:10018800D8A4C9EF00F0CCEF00F0010ECDEF00F0DD
:10019800000E3D6E000E2E6E000E2F6E000E306E9D
:1001A800000E316E3BC03CF000EF01F03DA0DFEFE8
:1001B80000F0E1EF00F0E7EF00F0D8903D300109E2
:1001C8003D6EE9EF00F0D8903D322EA0EEEF00F042
:1001D800F0EF00F0F1EF00F03D8E31343132303283
:1001E8002F322E323C2A3B503C5CD8A0FEEF00F068
:1001F80000EF01F0DAEF00F03ABC05EF01F007EF8D
:1002080001F047EF01F03C50D8A40DEF01F00FEFDB
:1002180001F019EF01F0000E2E6E000E2F6E000E89
:10022800306E000E316E68EF02F032502E263350D9
:100238002F22345030223550312231A026EF01F0E0
:1002480028EF01F0D4EF01F03DA02DEF01F02FEFE2
:1002580001F035EF01F0D8903D3001093D6E37EFE0
:1002680001F0D8903D322EA03CEF01F03EEF01F0B6
:100278003FEF01F03D8E3134313230322F322E32A1
:100288003C2AD4EF01F032502E5C33502F583450B2
:1002980030583150800A366E3550800A3658D8B0FA
:1002A80058EF01F05AEF01F085EF01F02E50325C63
:1002B800366E2F503358376E30503458386E3150B0
:1002C8003558396EFF0E36242E6EFF0E37202F6EEE
:1002D800FF0E3820306EFF0E3920316E800E3A1A2C
:1002E8003D6C3D50D8A47BEF01F07DEF01F08DEF20
:1002F80001F0010E2E26000E2F22302231228DEF22
:1003080001F032502E5E33502F5A3450305A355047
:10031800315A2E502F1030103110D8A496EF01F01A
:1003280098EF01F0CDEF01F03D50D8A49EEF01F019
:10033800A0EF01F0CDEF01F0000E2E6E000E2F6E33
:10034800000E306E000E316E68EF02F0D8902E3637
:100358002F36303631363DAEB4EF01F0B6EF01F04E
:10036800B7EF01F02E803DA0BCEF01F0BEEF01F029
:10037800C2EF01F0D8803D36C4EF01F0D8903D3689
:100388003C50D8B4CAEF01F0CCEF01F0CDEF01F04A
:100398003C0630AED2EF01F0D4EF01F0AAEF01F045
:1003A800000E3B6E3DAEDBEF01F0DDEF01F0F5EF47
:1003B80001F03DC036F07F0E3616D8B4E6EF01F0F6
:1003C800E8EF01F0ECEF01F0010E3B6EF5EF01F004
:1003D8002EA0F1EF01F0F3EF01F0F5EF01F0E8EFF7
:1003E80001F03B50D8B4FBEF01F0FDEF01F028EF2E
:1003F80002F0010E2E26000E2F223022312231A0CB
:1004080008EF02F00AEF02F028EF02F02EC036F0F3
:100418002FC037F030C038F031C039F039343932B4
:1004280038323732363236C02EF037C02FF038C067
:1004380030F039C031F03C28D8B425EF02F027EF6E
:1004480002F028EF02F03C2A3C28D8B42EEF02F044
:1004580030EF02F038EF02F03C50D8A436EF02F04B
:1004680038EF02F04AEF02F0000E2E6E000E2F6EEB
:10047800000E306E000E316E3C50D8A446EF02F0EC
:1004880048EF02F04AEF02F0000E3A6E3CA04FEF40
:1004980002F051EF02F054EF02F0308E55EF02F007
:1004A800309ED8903C30316E3AAE5DEF02F05FEF8F
:1004B80002F060EF02F0318E2EC02EF02FC02FF028
:1004C80030C030F031C031F012001850800B256E6A
:1004D800185018242C6E17AE74EF02F076EF02F065
:1004E80077EF02F02C802C50D8B47DEF02F07FEF2C
:1004F80002F094EF02F02C28D8A485EF02F087EFE1
:1005080002F08FEF02F0000E156E000E166E000E50
:10051800176E000E186E178E000E186E9CEF02F004
:10052800000E156E000E166E000E176E000E186E79
:100538001C50800B251A1C501C242D6E1BAEA7EFD7
:1005480002F0A9EF02F0AAEF02F02D802D50D8B4E6
:10055800B0EF02F0B2EF02F0C7EF02F02D28D8A4F6
:10056800B8EF02F0BAEF02F0C2EF02F0000E196E17
:10057800000E1A6E000E1B6E000E1C6E1B8E000EF7
:100588001C6ECFEF02F0000E196E000E1A6E000EF0
:100598001B6E000E1C6E19501A101B101C10D8A4CC
:1005A800D8EF02F0DAEF02F0F2EF02F0000E156E6B
:1005B800000E166E000E176E000E186E800E1712C3
:1005C8007F0E18122550181215C015F016C016F017
:1005D80017C017F018C018F035EF04F02C50D8A445
:1005E800F8EF02F0FAEF02F004EF03F0000E156ED8
:1005F800000E166E000E176E000E186E35EF04F022
:100608002D502CC01DF01E6A1D5E000E1E5A7F0E56
:100618001D24266E000E1E20276E15C021F016C060
:1006280022F017C023F018C024F0000E156E000E3B
:10063800166E000E176E000E186E000E286E000E55
:10064800296E000E2A6E000E2B6E000E2D6E65EFC1
:1006580003F02D50D8B433EF03F035EF03F04CEF2F
:1006680003F0D8902136223623362436D890153612
:100678001636173618362BAE44EF03F046EF03F064
:1006880047EF03F01580D890283629362A362B36BE
:100698001950215C1A5022581B5023581C502458BA
:1006A800D8A059EF03F05BEF03F064EF03F02B8C55
:1006B8001950215E1A50225A1B50235A1C50245A92
:1006C8002D2A190E2D646BEF03F06DEF03F02DEF5B
:1006D80003F02150221023102410D8B476EF03F031
:1006E80078EF03F090EF03F0288090EF03F0D890B4
:1006F80015361636173618362BAE85EF03F087EF0A
:1007080003F088EF03F01580D890283629362A366A
:100718002B362606D8A0270617AE95EF03F097EFDD
:1007280003F07BEF03F0000E2D6E2BAE9EEF03F06F
:10073800A0EF03F0C4EF03F0FF0E28141D6EFF0EA8
:1007480029141E6EFF0E2A141F6E7F0E2B14206EA6
:100758001D501E101F102010D8B4B5EF03F0B7EFCE
:1007680003F0BBEF03F0010E2D6EC4EF03F015A0EC
:10077800C0EF03F0C2EF03F0C4EF03F0B7EF03F0EC
:100788002D50D8B4CAEF03F0CCEF03F0F0EF03F02C
:10079800010E1526000E16221722182218A0D7EFD0
:1007A80003F0D9EF03F0F0EF03F015C01DF016C009
:1007B8001EF017C01FF018C020F0203420321F325E
:1007C8001E321D321DC015F01EC016F01FC017F0D6
:1007D80020C018F0264A272A27BEFBEF03F027502F
:1007E80008E12628D8A0FBEF03F0FDEF03F008EF9F
:1007F80004F0000E276E2668000E156E000E166EA9
:10080800000E176E000E186E27BE15EF04F0275065
:1008180006E12604D8B013EF04F015EF04F023EF37
:1008280004F0000E276E000E266E000E156E000EE8
:10083800166E000E176E000E186E000E256E26C07E
:100848002CF02CA02AEF04F02CEF04F02FEF04F08A
:10085800178E30EF04F0179ED8902C30186EE6EF04
:1008680002F012000F6E0F50D8B43DEF04F03FEFC6
:1008780004F061EF04F00ABE46EF04F044EF04F020
:1008880061EF04F007C00BF008C00CF009C00DF0D0
:100898000AC00EF00B1E0C1E0D1E0E1E0B2A000E9B
:1008A8000C220D220E220BC011F00CC012F00DC04C
:1008B80013F00EC014F069EF04F007C011F008C07F
:1008C80012F009C013F00AC014F0075008100910FC
:1008D8000A10D8A472EF04F074EF04F07EEF04F06D
:1008E800000E076E000E086E000E096E000E0A6EEE
:1008F8000FEF05F0960E106E88EF04F0102AD890CE
:100908001432133212321132000E11140B6E000E13
:1009180012140C6E000E13140D6EFE0E14140E6ECF
:100928000B500C100D100E10D8A49DEF04F09FEF83
:1009380004F082EF04F0ADEF04F0102A010E112646
:10094800000E122213221422D890143213321232BB
:100958001132000E11140B6E000E12140C6E000EE4
:1009680013140D6EFF0E14140E6E0B500C100D1098
:100978000E10D8A4C2EF04F0C4EF04F0A1EF04F005
:10098800CCEF04F01006D890113612361336143610
:1009980013BED1EF04F0D3EF04F0DBEF04F0020E46
:1009A8001060D9EF04F0DBEF04F0C6EF04F010B0EC
:1009B800E0EF04F0E2EF04F0E3EF04F0139ED890C8
:1009C800103210C00BF00C6A0D6A0E6A0BC00EF0E4
:1009D8000D6A0C6A0B6A0B5011120C5012120D5052
:1009E80013120E5014120F50D8B4FDEF04F0FFEF9D
:1009F80004F007EF05F00ABE06EF05F004EF05F076
:100A080007EF05F0148E11C007F012C008F013C0EC
:100A180009F014C00AF0120009340A34106E10509C
:100A2800D8A419EF05F01BEF05F025EF05F0000E2F
:100A3800076E000E086E000E096E000E0A6E92EF29
:100A480005F007C00BF008C00CF009C00DF00AC093
:100A58000EF0200E35EF05F0D8900E320D320C3224
:100A68000B32E82E30EF05F00B500F6E098EFF0E9B
:100A78000716FF0E0816FF0E0916000E0A16960E28
:100A8800105E10BE4CEF05F04AEF05F062EF05F07E
:100A98001050800A970FD8B054EF05F056EF05F0C4
:100AA80058EF05F01BEF05F0D8900A3209320832EA
:100AB8000732103E58EF05F07AEF05F01F0E10646C
:100AC80068EF05F06AEF05F072EF05F01BEF05F02F
:100AD800D8900736083609360A3610061050D8A4BA
:100AE80078EF05F07AEF05F06CEF05F00F50D8B409
:100AF80080EF05F082EF05F08AEF05F00A1E091E67
:100B0800081E076C000E082209220A2207C007F0F7
:100B180008C008F009C009F00AC00AF0120006006F
:100B28009EAA99EF05F09BEF05F010EF06F0ABA237
:100B3800A0EF05F0A2EF05F0A5EF05F0AB9800F0E7
:100B4800AB88AECF46F0610E4618D8A4AEEF05F0DC
:100B5800B0EF05F0E1EF05F0000E066E000E056E31
:100B680006BEC0EF05F0065009E1080E055CD8A0E6
:100B7800C0EF05F0C2EF05F0C4EF05F00FEF06F087
:100B880005C001F0010E026E012ACDEF05F0D890E4
:100B98000236012ECBEF05F00250836E060E026E70
:100BA800130E016EAE0EE82EFED7012EFCD7022ED4
:100BB800FAD7054A062AB4EF05F0000E046E000EB7
:100BC800036E550E836E060E026E130E016EAE0E88
:100BD800E82EFED7012EFCD7022EFAD7AA0E836E76
:100BE800060E026E130E016EAE0EE82EFED7012E13
:100BF800FCD7022EFAD7034A042A04BE0DEF06F0EA
:100C0800045009E1080E035CD8A00DEF06F00FEFC1
:100C180006F0E5EF05F09E9A47921100948C948EA9
:100C28003EC007F03FC008F040C009F041C00AF0DC
:100C3800010E36EC04F007C019F008C01AF009C01C
:100C48001BF00AC01CF0000E156E240E166EF40E72
:100C5800176E470E186E69EC02F015C02EF016C01C
:100C68002FF017C030F018C031F0000E326E000EB1
:100C7800336E800E346EBF0E356E09EC00F02EC058
:100C880042F02FC043F030C044F031C045F042C0BC
:100C980007F043C008F044C009F045C00AF010EC62
:100CA80005F00750AF6EAC9EAC9CAC8AAC98AC9487
:100CB800B896900EAB6E1200000E956EF28EF28C06
:100CC8009E9A9D8A9F8A000E836E800E3E6E250E28
:100CD8003F6E000E406E000E416E12EC06F0000EE4
:100CE800836E73EF06F007EF00F0466A479047926D
:060CF800000160EF06F0B0
:020000040020DA
:08000000FFFFFFFFFFFFFFFF00
:020000040030CA
:0E000000FF021F1FFF8385FF0FC00FE00F40A0
:00000001FF
