:0400000007EF00F016
:10000800028236ED00F043EF00F026EC00F0000E1F
:10001800936E0104D8A413EF00F015EF00F018EF69
:1000280000F081800DEF00F0020E0118D8A41FEF38
:1000380000F021EF00F00DEF00F081900DEF00F0DF
:1000480007EF00F0C690C692C684C696C68AC698C0
:10005800C79CC79E949A94889486928A9D86F28CAF
:10006800F28E120006009EA63CEF00F03EEF00F074
:1000780041EF00F0C9CF01F09E9602921100016A8B
:0A00880002900292000109EF00F05F
:020000040020DA
:08000000FFFFFFFFFFFFFFFF00
:020000040030CA
:0E000000FF021F1FFF8385FF0FC00FE00F40A0
:00000001FF
