:04000000CCEF7FF0D2
:10FF98000001CFEF7FF00F01418F418D418BF30EB0
:10FFA8004117419192929294E00E4017000E026E12
:10FFB800000E016E0F0140510118E00B0118406F4F
:10FFC800014A022AF80E00D0E82EFDD702BEF6EF4D
:10FFD8007FF0025009E1200E015CD8A0F6EF7FF017
:10FFE800F8EF7FF0DEEF7FF0000E026E000E016E7C
:08FFF800DEEF7FF000EF00F0E6
:020000040020DA
:08000000FFFFFFFFFFFFFFFF00
:020000040030CA
:0E000000FF281F3FFFBF85FF0FC00FE00F401E
:00000001FF
