:0400000038EF3FF0A6
:107E0C0021EC3FF0336E3350010B1200928A9496A2
:107E1C009488949A929A800EC76E300EC66E120099
:107E2C00316E31C0C9FFC7A01EEF3FF020EF3FF00D
:107E3C0019EF3FF01200809A050E16EC3FF0000E81
:107E4C002CEC3FF0326E808A32501200316E31C011
:107E5C00C9FFC7A034EF3FF036EF3FF02FEF3FF0F4
:107E6C00C9501200960EF66E7E0EF76E000EF86E6E
:107E7C0000EE01F010EE30F00900F5CFEEFFE5500A
:107E8C00E150FAE100019CEF3FF00301310B32109D
:107E9C00230C0460BFC0C6101703F80A190A2A1075
:107EAC00CB0C88132D611E50AF42C0F9A4B099922F
:107EBC0082F880908883C6A1868E06EC3FF0E80697
:107ECC00D8B46BEF3FF06DEF3FF063EF3FF0809A6B
:107EDC00030E16EC3FF0355016EC3FF0345016EC18
:107EEC003FF0000E2CEC3FF0366E808A36501200BC
:107EFC0006EC3FF0E806D8B486EF3FF088EF3FF091
:107F0C007EEF3FF0809A060E16EC3FF0808A809A46
:107F1C00020E16EC3FF0355016EC3FF0345016ECD8
:107F2C003FF0365016EC3FF0808A12000CEC3FF01C
:107F3C00000E956E21C083FF000E3C6E000E3B6E52
:107F4C00D8903B34D96E3C34DA6E010ED926000E33
:107F5C00DA22DECF34F0DDCF35F0210E3B24D96EA2
:107F6C00000E3C20DA6EDF50366E7EEC3FF03B4A62
:107F7C003C2A3CBECBEF3FF03C5009E1100E3B5C81
:107F8C00D8A0CBEF3FF0CDEF3FF0A6EF3FF0000EC7
:107F9C003A6E000E396ED8903934D96E3A34DA6EA6
:107FAC00010ED926000EDA22DECF34F0DDCF35F00B
:107FBC0063EC3FF0836E060E386E130E376EAE0E0A
:107FCC00E82EFED7372EFCD7382EFAD7394A3A2A64
:107FDC003ABEFAEF3FF03A5009E1100E395CD8A0E6
:107FEC00FAEF3FF0FCEF3FF0D1EF3FF0CDEF3FF079
:047FFC0000EF00F0A2
:020000040020DA
:08000000FFFFFFFFFFFFFFFF00
:020000040030CA
:0E000000FF021F1FFF8385FF0FC00FE00F40A0
:00000001FF
