:0400000007EF00F016
:0A0008007E82DCED0BF00FEF0BF031
:1006000000436865636B73756D204572726F72206D
:100610002100547279696E6720616761696E202ECE
:100620002E2E0066726F6D207468652073656E7380
:100630006F72004E6F20526573706F6E7365002588
:050640003033750000DD
:100646003EC0D9FF3FC0DAFFDECFF6FFDDCFF7FFB2
:100656000800F550250AD8A433EF03F035EF03F070
:10066600B1EF04F03EC0D9FF3FC0DAFFDE2A000E2C
:10067600DD22000E0001836F000E826F82C086F0BD
:1006860083C087F084698569000E4F6E000E4E6E3A
:1006960098EF03F0000186813EC0D9FF3FC0DAFF24
:1006A600DE2A000EDD2298EF03F0000186834FEF6D
:1006B60003F0000186854FEF03F0000186874FEFB8
:1006C60003F0000186894FEF03F0000E4F6E010E16
:1006D6004E6E98EF03F03EC0D9FF3FC0DAFFDECF83
:1006E600F6FFDDCFF7FF0800F550426E436A435030
:1006F600000AD8B481EF03F068EF03F04250200AF5
:10070600D8B460EF03F0030AD8B464EF03F0080A24
:10071600D8B45CEF03F0060AD8B44DEF03F01D0A17
:10072600D8B458EF03F068EF03F04E504F10D8B42A
:100736009FEF03F0A1EF03F06EEF03F0000186A137
:10074600A7EF03F0A9EF03F0AAEF03F086933EC0EC
:10075600D9FF3FC0DAFFDECFF6FFDDCFF7FF080097
:10076600F5502A0AD8A4BAEF03F0BCEF03F0E5EF80
:1007760003F03EC0D9FF3FC0DAFFDE2A000EDD22BD
:1007860040C0D9FF41C0DAFFDFCF42F0020EDE26BD
:10079600DFCF43F0000EDD2242C0D9FF43C0DAFFAF
:1007A600DECF82F0DDCF83F083BFDEEF03F0DCEF38
:1007B60003F028EF04F08681826D831FD8B0832B67
:1007C60028EF04F03EC0D9FF3FC0DAFFDECF08F0C5
:1007D600DDCF09F0F2EC06F008C082F009C083F024
:1007E600FCEF03F03EC0D9FF3FC0DAFFDE2A000E61
:1007F600DD22D00E426EFF0E436E3EC0D9FF3FC0D3
:10080600DAFFDECFF6FFDDCFF7FF0800F550446EC6
:10081600456A425044264350452245500AE10A0E95
:10082600445CD8A019EF04F01CEF04F0010E1DEF94
:1008360004F0000E506E516A50505110D8A426EFA5
:1008460004F028EF04F0F5EF03F03EC0D9FF3FC0F7
:10085600DAFFDECFF6FFDDCFF7FF0800F550750AA9
:10086600D8A438EF04F03AEF04F07BEF04F03EC072
:10087600D9FF3FC0DAFFDE2A000EDD2240C0D9FFD5
:1008860041C0DAFFDFCF42F0020EDE26DFCF43F0B3
:10089600000EDD2242C0D9FF43C0DAFFDECF44F0AE
:1008A600DDCF45F044C046F045C047F0486A496A86
:1008B6004A6A4B6A4C6A4D6A3CC01CF03DC01DF04A
:1008C60046C01EF047C01FF048C020F049C021F0C6
:1008D6004AC022F04BC023F04CC024F04DC025F096
:1008E600F1EC05F01CC03CF01DC03DF0CCEF04F06F
:1008F6003EC0D9FF3FC0DAFFDECFF6FFDDCFF7FF00
:100906000800F550250AD8A48BEF04F08DEF04F00B
:10091600A4EF04F03EC0D9FF3FC0DAFFDE2A000E86
:10092600DD22000E026E250E016E3CC003F03DC0B6
:1009360004F09AEC08F0000E3D6E010E3C6ECCEF12
:1009460004F03EC0D9FF3FC0DAFFDE2A000EDD22EA
:10095600000E3D6E000E3C6ECCEF04F03EC0D9FF9B
:100966003FC0DAFFDECFF6FFDDCFF7FF0800F55018
:10097600016E026A3CC003F03DC004F09AEC08F038
:100986003EC0D9FF3FC0DAFFDE2A000EDD229EEF11
:1009960004F01200F28EF28C9D82000ECA6E9E92B8
:1009A600000ECC6E2CEC0BF0010E49EC0BF00B0E8E
:1009B600696E260E686E5E0EE82EFED7682EFCD790
:1009C600692EFAD7FDEC0BF0AEEC09F001C076F01B
:1009D60002C077F076507710D8A4F4EF04F0F6EF63
:1009E60004F011EF05F0010E49EC0BF0000E056E58
:1009F600000E34EC0AF0330E056E060E066EF8ECA9
:100A060009F0010E056E000E34EC0AF0230E056E99
:100A1600060E066EF8EC09F0DAEF04F062EC09F067
:100A260001C08AF002C08BF062EC09F001C088F0C8
:100A360002C089F062EC09F001C08EF002C08FF0AE
:100A460062EC09F001C08CF002C08DF062EC09F096
:100A560001C092F002C093F000018A51696E686A83
:100A660088516810786E89516910796E8E51696E59
:100A7600686A8C5168107C6E8D5169107D6E000E0F
:100A86007B6E000E7A6E7C04800E7D58D8A04EEFE9
:100A960005F050EF05F058EF05F0FF0E7C160F0E2F
:100AA6007D16000E7B6E010E7A6E6C0E5A6E000E6F
:100AB6005B6E3F0E5C6E060E5D6E78C05EF079C0B2
:100AC6005FF0C6EC0AF0710E5A6E000E5B6E3F0EBA
:100AD6005C6E060E5D6E7CC05EF07DC05FF0C6EC9F
:100AE6000AF0000188518A25686E89518B21696E4A
:100AF6008E5168268F5169228C5168268D51692244
:100B0600925168180AE193516918D8B48DEF05F02F
:100B160090EF05F0010E91EF05F0000E6A6E6B6A1C
:100B26006A500009D8B49AEF05F09CEF05F0D4EFAF
:100B360005F06CC0C1F06DC0C2F06EC0C4F07A5052
:100B46007B10D8B4A9EF05F0ABEF05F0AFEF05F0D9
:100B56002D0ECE6FDAEF04F0200ECE6F71C0CFF0FF
:100B660072C0D0F073C0D2F0DF0ED36F010E49EC25
:100B76000BF0000E056E000E34EC0AF0C80E056E82
:100B8600000E066EF8EC09F0010E056E000E34EC50
:100B96000AF0B60E056E000E066EF8EC09F0DAEFF6
:100BA60004F0010E49EC0BF0000E056E000E34EC5D
:100BB6000AF0010E056E060E066EF8EC09F0010E3F
:100BC600056E000E34EC0AF0120E056E060E066E69
:100BD600F8EC09F0DAEF04F007EF00F0000185BF4A
:100BE600F7EF05F0F9EF05F0FAEF05F0869385BF0C
:100BF60007EF06F0855106E18405D8B005EF06F04B
:100C060007EF06F00DEF06F0000E2F6E010E2E6EAA
:100C160011EF06F084C02EF085C02FF082C030F0B0
:100C260083C031F01EC032F01FC033F020C034F054
:100C360021C035F022C036F023C037F024C038F08A
:100C460025C039F0000E3B6E1F0E3A6E000EB56FD2
:100C5600A3EF06F03A06D8A03B06960E3A24D96EC4
:100C6600000E3B20DA6E32C001F033C002F034C011
:100C760003F035C004F036C005F037C006F038C0C2
:100C860007F039C008F00A0E096E000E0A6E000E53
:100C96000B6E000E0C6E000E0D6E000E0E6E000E2C
:100CA6000F6E000E106E32EC08F001C026F002C086
:100CB60027F003C028F004C029F005C02AF006C0BA
:100CC6002BF007C02CF008C02DF02650300FDF6E39
:100CD6002E06D8A02F063006D8A0310632C001F065
:100CE60033C002F034C003F035C004F036C005F05E
:100CF60037C006F038C007F039C008F00A0E096E92
:100D0600000E0A6E000E0B6E000E0C6E000E0D6EBF
:100D1600000E0E6E000E0F6E000E106EBAEC07F08F
:100D260001C032F002C033F003C034F004C035F025
:100D360005C036F006C037F007C038F008C039F0F5
:100D46003A503B10D8B4AAEF06F0ACEF06F0DDEF50
:100D560006F0325033103410351036103710381074
:100D66003910D8A4B9EF06F0BBEF06F02DEF06F068
:100D76002FBEC8EF06F02F5006E12E04D8B0C6EFFE
:100D860006F0C8EF06F02DEF06F031BED3EF06F001
:100D9600315008E13004D8A0D3EF06F0D5EF06F0C5
:100DA600DDEF06F0000186B3DBEF06F0DDEF06F0BF
:100DB6002DEF06F01CC011F01DC012F0960E3A245D
:100DC600136E000E3B20146E30C015F031C016F0C5
:100DD600FFEC08F011C01CF012C01DF01200000E4E
:100DE600166E000E156E000E0F6E000E0E6EFEEFE6
:100DF60006F0084A092A010E146E08C0F6FF09C05B
:100E0600F7FF0800F550200AD8B40CEF07F00EEFF4
:100E160007F02BEF07F0F70E0A6EFF0E0B6E08C0F9
:100E2600F6FF09C0F7FF0800F5500C6E0D6A0A5070
:100E36000C260B500D220D5009E1050E0C5CD8A0B6
:100E460027EF07F029EF07F02BEF07F0000E146EDF
:100E560014C010F0116A10501110D8A435EF07F025
:100E660037EF07F0FCEF06F041EF07F0000E0F6ECC
:100E7600010E0E6E084A092A76EF07F008C0F6FF43
:100E860009C0F7FF0800F5500A6E0B6A0B50000AFE
:100E9600D8B450EF07F076EF07F00A502B0AD8B413
:100EA6003DEF07F0060AD8B439EF07F076EF07F002
:100EB60015C001F016C002F0000E046E0A0E036E95
:100EC600C9EC0BF008C0F6FF09C0F7FF0800F550A3
:100ED600015E000E025A300E0124156E000E02202D
:100EE600166E3DEF07F0D00E0A6EFF0E0B6E08C0B1
:100EF600F6FF09C0F7FF0800F5500C6E0D6A0A50A0
:100F06000C260B500D220D500AE10A0E0C5CD8A0DF
:100F16008FEF07F092EF07F0010E93EF07F0000E48
:100F2600126E136A12501310D8A49CEF07F09EEFAE
:100F360007F05BEF07F00E500F10D8A4A5EF07F0EF
:100F4600A7EF07F0B5EF07F015C00AF016C00BF0D3
:100F56000A1E0B1E0A4A0B2A0AC008F00BC009F02B
:100F6600B9EF07F015C008F016C009F0120020EE20
:100F760011F0070EDE6AE806FDE209500A100B10B2
:100F86000C100D100E100F101010D8B4CDEF07F086
:100F9600CFEF07F021EF08F0010E196EDDEF07F035
:100FA600D89009360A360B360C360D360E360F3605
:100FB6001036192A10AEE2EF07F0E4EF07F0D3EF90
:100FC60007F0D89011361236133614361536163603
:100FD600173618360950015C0A5002580B50035850
:100FE6000C5004580D5005580E5006580F5007580F
:100FF60010500858D8A002EF08F004EF08F015EFDB
:1010060008F00950015E0A50025A0B50035A0C5060
:10101600045A0D50055A0E50065A0F50075A1050D2
:10102600085A1180D89010320F320E320D320C321F
:101036000B320A320932192EE4EF07F011C001F023
:1010460012C002F013C003F014C004F015C005F07E
:1010560016C006F017C007F018C008F012000950B5
:101066000A100B100C100D100E100F101010D8B423
:101076003FEF08F041EF08F089EF08F0010E116E1E
:101086004FEF08F0D89009360A360B360C360D3677
:101096000E360F361036112A10AE54EF08F056EF02
:1010A60008F045EF08F00950015C0A5002580B5051
:1010B60003580C5004580D5005580E5006580F5042
:1010C600075810500858D8A06BEF08F06DEF08F0DD
:1010D6007DEF08F00950015E0A50025A0B50035A80
:1010E6000C50045A0D50055A0E50065A0F50075A06
:1010F6001050085AD89010320F320E320D320C3280
:101106000B320A320932112E56EF08F001C001F0F7
:1011160002C002F003C003F004C004F005C005F0ED
:1011260006C006F007C007F008C008F0120003501A
:101136000410D8B4A1EF08F0A3EF08F0ACEF08F064
:1011460003500410D8A4AAEF08F0ACEF08F0B1EFF2
:1011560008F001500CEC0CF0FEEF08F020EE04F065
:101166000350D9260450DA22DE50DE10D8B4BEEF82
:1011760008F0C0EF08F0DBEF08F020EE04F00350B3
:10118600D9260450DA2210EE02F00350E12604506C
:10119600E222DE50E65CE650800A096EDE50800AE6
:1011A6000958D8B0D9EF08F0DBEF08F0FEEF08F0E9
:1011B60020EE02F00350D9260450DA22DECF05F0E5
:1011C600DDCF06F003C0D9FF04C0DAFFDECF07F09B
:1011D600DDCF08F005500724D96E06500820DA6ED8
:1011E60001C0DFFF20EE02F00350D9260450DA22B8
:1011F600DE2A000EDD221200000186A105EF09F0AD
:1012060007EF09F011EF09F013C00AF014C00BF054
:1012160011C00CF012C00DF0EDEC0AF016BE16EF80
:1012260009F018EF09F01EEF09F015C01AF016C004
:101236001BF022EF09F0000E1B6E000E1A6E000E58
:10124600196E000E186E34EF09F0000E026E200EB5
:10125600016E11C003F012C004F09AEC08F0184AAF
:10126600192A1A50185C1950800A176E1B50800AEA
:101276001758D8A041EF09F043EF09F028EF09F01D
:10128600000186B149EF09F04BEF09F055EF09F07F
:1012960013C00AF014C00BF011C00CF012C00DF010
:1012A600EDEC0AF013C001F014C002F082EC0BF072
:1012B6001A500124116E1B500220126E1200000EED
:1012C600076E000E066E9280000E096E000E086E06
:1012D60080A070EF09F072EF09F06BEF09F0000ED5
:1012E600CC6ECA8480B07AEF09F07CEF09F075EF16
:1012F60009F0CA94280ECC6483EF09F085EF09F053
:1013060099EF09F008500708036E010E046E000EEF
:10131600056E032A92EF09F0D89004360536032E9F
:101326008FEF09F00450061205500712084A092AE1
:1013360009BEA7EF09F0095009E1080E085CD8A01C
:10134600A7EF09F0A9EF09F06BEF09F006C001F06D
:1013560007C002F01200000E0001956F000E946F98
:10136600000ECC6ECA8480B0BBEF09F0BDEF09F069
:10137600C6EF09F094519511D8B4C4EF09F0C6EF41
:1013860009F0B6EF09F094519511D8B4CDEF09F0F4
:10139600CFEF09F0D5EF09F0000E026E000E016ED8
:1013A600F7EF09F0000ECC6E80A0DCEF09F0DEEF5F
:1013B60009F0E7EF09F094519511D8B4E5EF09F07B
:1013C600E7EF09F0D7EF09F094519511D8B4EEEF95
:1013D60009F0F0EF09F0F2EF09F0CFEF09F0CA9447
:1013E600000E026E010E016E1200000E096E15EF60
:1013F6000AF009500524076E000E0620086E07C085
:10140600F6FF08C0F7FFF86A050EF76403D0080078
:10141600F55005D0F6CFE1FFF7CFE2FFE7509DECA0
:101426000BF0092A09500524076E000E0620086EE7
:1014360007C0F6FF08C0F7FFF86A050EF76403D089
:101446000800F55005D0F6CFE1FFF7CFE2FFE750F1
:101456000009D8A431EF0AF033EF0AF0FCEF09F0E7
:1014660012000A6E020E05603BEF0AF03DEF0AF02D
:101476006BEF0AF00F0E0A6443EF0AF045EF0AF02D
:1014860047EF0AF06BEF0AF00504D8B44DEF0AF007
:101496004FEF0AF059EF0AF0800E0AC006F0076A0D
:1014A6000610086E0750096E61EF0AF0C00E0AC0FA
:1014B60006F0076A0610086E0750096E085049ECD8
:1014C6000BF00D0E066EFC0EE82EFED7062EFCD790
:1014D600120054C058F055C059F0000E0001816F3B
:1014E600000E806F8AEF0AF052C03CF053C03DF008
:1014F600580E3E6E000E3F6E56C040F057C041F08B
:1015060023EC03F03C50000180273D50812358C056
:10151600F6FF59C0F7FF0800F5500009D8A496EF6A
:101526000AF098EF0AF077EF0AF080C052F081C017
:1015360053F01200010E076E200E01180210D8B4E7
:10154600A7EF0AF0A9EF0AF0C2EF0AF0F70E036E52
:10155600FF0E046E01C005F002C006F0035005261A
:1015660004500622065009E1050E055CD8A0BEEF20
:101576000AF0C0EF0AF0C2EF0AF0000E076E07C0CD
:1015860001F0026A12005E0E606E000E616E5AC0B5
:1015960062F05BC063F0000E656E000E646E000EB6
:1015A600676E000E666E620E526E000E536E5CC063
:1015B60054F05DC055F0600E566E000E576E6CEC22
:1015C6000AF064505A24D96E65505B20DA6E000E1C
:1015D600DF6E1200000E106E000E0F6EFEEF0AF0A8
:1015E6000EC001F0026A0CC003F00DC004F09AECC4
:1015F60008F00F4A102A0F500A24D96E10500B20FB
:10160600DA6EDF500E6E0E50D8A40CEF0BF00EEF14
:101616000BF0F3EF0AF01200DA0EF66E170EF76E05
:10162600000EF86E00EEB6F010EE20F00900F5CFD1
:10163600EEFFE550E150FAE100EE80F0360EEE6A7C
:10164600E806FDE17E907E92000EF86E0001CDEF79
:1016560004F0000E836E000E956E838E270E056EC7
:10166600F50EE82EFED7052EFCD700F0320E49EC1B
:101676000BF0280E49EC0BF00C0E49EC0BF0010EAA
:1016860049EC0BF0060E49EC0BF01200046E0D0E41
:10169600036EFC0EE82EFED7032EFCD7000E016E5D
:1016A6000450B3EC0BF00438F00B046E030E036E1B
:1016B600980EE82EFED7032EFCD7000E016E0450BE
:1016C600B3EC0BF01200D00E036EFF0E046E01C0D9
:1016D60005F002C006F00350052604500622065007
:1016E6000AE10A0E055CD8A07BEF0BF07EEF0BF04B
:1016F600010E7FEF0BF0000E016E026A120001C0B0
:1017060003F002C004F08AEF0BF0014A022A01C07E
:10171600D9FF02C0DAFFDF50D8A494EF0BF096EFA2
:101726000BF088EF0BF00350015C016E0450025879
:10173600026E1200046E0D0E036EFC0EE82EFED72E
:10174600032EFCD7010E016E0450B3EC0BF00438E7
:10175600F00B046E010E016E0450B3EC0BF0120098
:10176600026E02380F0B026E02500F0B026E835090
:10177600F00B836E83500210836E01B002D0839803
:1017860001D08388839A838C839C120001500302C4
:10179600F3CF05F0F4CF06F001500402F35006260D
:1017A60002500302F350062605C001F006C002F0FF
:1017B600120006009EA2E2EF0BF0E4EF0BF0EBEF57
:1017C6000BF0000E0001956F010E946FCA949E9265
:1017D6007E92110048756D6964697479203D2030E8
:1017E600302E3020250054656D70203D2030302E7F
:1017F60030204300929080902F0E016EC00EE82E8E
:10180600FED7012EFCD79280350EE82EFED700F0CB
:0418160012001200AA
:020000040020DA
:08000000FFFFFFFFFFFFFFFF00
:020000040030CA
:0E000000FF021F1FFF8385FF0FC00FE00F40A0
:00000001FF
