:0400000007EF00F016
:0A00080059821FED0DF0E4EF10F037
:1006000000506572696F64203D2000206D207300EA
:100610002564000000018351800B8C6F835183257A
:10062000926F82AF16EF03F018EF03F019EF03F0AB
:1006300092819251D8B41FEF03F021EF03F034EF11
:1006400003F09229D8A427EF03F029EF03F031EF4C
:1006500003F0000E806F000E816F000E826F000E9F
:10066000836F828F3CEF03F0000E806F000E816F6E
:10067000000E826F000E836F8751800B8C1B875199
:1006800087258D6F86AF47EF03F049EF03F04AEF00
:1006900003F08D818D51D8B450EF03F052EF03F089
:1006A00065EF03F08D29D8A458EF03F05AEF03F05B
:1006B00062EF03F0000E846F000E856F000E866FF0
:1006C000000E876F868F6DEF03F0000E846F000EB3
:1006D000856F000E866F000E876F8D51D8B473EF53
:1006E00003F075EF03F07DEF03F09251D8A47BEF98
:1006F00003F07DEF03F087EF03F0000E806F000E34
:10070000816F000E826F000E836F1FEF05F0865120
:100710008003F3CF97F0F4CF98F097518E6F8F6BE3
:10072000906B916B9851936F946B956B966B855111
:100730008103F3CF97F0F4CF98F097518E27000EF6
:100740008F239023912398519327000E9423952370
:10075000962384518203F3CF97F0F4CF98F097510A
:100760008E27000E8F239023912398519327000EFC
:1007700094239523962390C091F08FC090F08EC063
:100780008FF08E6B84518103F3CF97F0F4CF98F004
:1007900097518E2798518F23000E9023000E91239E
:1007A00085518003F3CF97F0F4CF98F097518E27BF
:1007B00098518F23000E9023000E912390C091F04A
:1007C0008FC090F08EC08FF08E6B84518003F3CF7A
:1007D00097F0F4CF98F097518E2798518F23000E01
:1007E0009023000E912386518103F3CF97F0F4CF2D
:1007F00098F09751932798519423000E9523000E5B
:10080000962385518203F3CF97F0F4CF98F0975158
:10081000932798519423000E9523000E962386511A
:100820008203F3CF97F0F4CF98F09751886F9851E7
:10083000896F8A6B8B6B8AC08BF089C08AF088C005
:1008400089F0886B88519327895194238A51952385
:100850008B5196238EC088F08FC089F090C08AF0AB
:1008600091C08BF0190E3AEF04F0D8908B338A3395
:1008700089338833E82E35EF04F088519327895166
:1008800094238A5195238B51962390C091F08FC069
:1008900090F08EC08FF08E6B8D5192C088F0896B76
:1008A0008827000E8923820E8825976FFF0E8921E5
:1008B000986F70EF04F0D890933794379537963748
:1008C00091AF65EF04F067EF04F068EF04F09381F7
:1008D000D8908E378F37903791379707D8A09807E1
:1008E00095AF75EF04F077EF04F05BEF04F0000EC6
:1008F0008D6F91AF7EEF04F080EF04F0A4EF04F071
:10090000FF0E8E15886FFF0E8F15896FFF0E9015E5
:100910008A6F7F0E91158B6F885189118A118B1107
:10092000D8B495EF04F097EF04F09BEF04F0010EBC
:100930008D6FA4EF04F093A1A0EF04F0A2EF04F0F8
:10094000A4EF04F097EF04F08D51D8B4AAEF04F0AF
:10095000ACEF04F0D0EF04F0010E9327000E9423C7
:100960009523962396A1B7EF04F0B9EF04F0D0EFEA
:1009700004F093C088F094C089F095C08AF096C0C6
:100980008BF08B358B338A338933883388C093F06F
:1009900089C094F08AC095F08BC096F0974B982B45
:1009A00098BFDBEF04F0985108E19729D8A0DBEF5E
:1009B00004F0DDEF04F0E7EF04F0000E936F000E9B
:1009C000946F800E956F7F0E966F15EF05F098BFB0
:1009D000F4EF04F0985106E19705D8B0F2EF04F077
:1009E000F4EF04F000EF05F0000E936F000E946F2B
:1009F000000E956F000E966F000E8C6F15EF05F0D0
:100A000097C092F0FF0E9317FF0E94177F0E951765
:100A1000000E961792A10FEF05F011EF05F012EFFF
:100A200005F0958FD8909231966F8C51961393C0A4
:100A300080F094C081F095C082F096C083F01200DF
:100A40002A50800B376E2A502A243E6E29AE2BEF97
:100A500005F02DEF05F02EEF05F03E803E50D8B4A6
:100A600034EF05F036EF05F04BEF05F03E28D8A443
:100A70003CEF05F03EEF05F046EF05F0000E276E67
:100A8000000E286E000E296E000E2A6E298E000EB2
:100A90002A6E53EF05F0000E276E000E286E000E32
:100AA000296E000E2A6E2E50800B371A2E502E24DF
:100AB0003F6E2DAE5EEF05F060EF05F061EF05F0E3
:100AC0003F803F50D8B467EF05F069EF05F07EEF47
:100AD00005F03F28D8A46FEF05F071EF05F079EF2E
:100AE00005F0000E2B6E000E2C6E000E2D6E000E0B
:100AF0002E6E2D8E000E2E6E86EF05F0000E2B6EE4
:100B0000000E2C6E000E2D6E000E2E6E2B502C1033
:100B10002D102E10D8A48FEF05F091EF05F0A9EF5E
:100B200005F0000E276E000E286E000E296E000ED6
:100B30002A6E800E29127F0E2A1237502A1227C0E1
:100B400027F028C028F029C029F02AC02AF0ECEFAD
:100B500006F03E50D8A4AFEF05F0B1EF05F0BBEFC3
:100B600005F0000E276E000E286E000E296E000E96
:100B70002A6EECEF06F03F503EC02FF0306A2F5E39
:100B8000000E305A7F0E2F24386E000E3020396E42
:100B900027C033F028C034F029C035F02AC036F021
:100BA000000E276E000E286E000E296E000E2A6EB3
:100BB000000E3A6E000E3B6E000E3C6E000E3D6E57
:100BC000000E3F6E1CEF06F03F50D8B4EAEF05F080
:100BD000ECEF05F003EF06F0D890333634363536B7
:100BE0003636D8902736283629362A363DAEFBEFE2
:100BF00005F0FDEF05F0FEEF05F02780D8903A36BE
:100C00003B363C363D362B50335C2C5034582D50FF
:100C100035582E503658D8A010EF06F012EF06F0D7
:100C20001BEF06F03D8C2B50335E2C50345A2D5068
:100C3000355A2E50365A3F2A190E3F6422EF06F0DD
:100C400024EF06F0E4EF05F0335034103510361081
:100C5000D8B42DEF06F02FEF06F047EF06F03A80FC
:100C600047EF06F0D8902736283629362A363DAE8B
:100C70003CEF06F03EEF06F03FEF06F02780D890FD
:100C80003A363B363C363D363806D8A0390629AED2
:100C90004CEF06F04EEF06F032EF06F0000E3F6E1E
:100CA0003DAE55EF06F057EF06F07BEF06F0FF0E76
:100CB0003A142F6EFF0E3B14306EFF0E3C14316E53
:100CC0007F0E3D14326E2F50301031103210D8B4D8
:100CD0006CEF06F06EEF06F072EF06F0010E3F6E5D
:100CE0007BEF06F027A077EF06F079EF06F07BEFB9
:100CF00006F06EEF06F03F50D8B481EF06F083EFB8
:100D000006F0A7EF06F0010E2726000E2822292262
:100D10002A222AA08EEF06F090EF06F0A7EF06F049
:100D200027C02FF028C030F029C031F02AC032F09F
:100D300032343232313230322F322FC027F030C0CD
:100D400028F031C029F032C02AF0384A392A39BE99
:100D5000B2EF06F0395008E13828D8A0B2EF06F01B
:100D6000B4EF06F0BFEF06F0000E396E3868000EE3
:100D7000276E000E286E000E296E000E2A6E39BEF8
:100D8000CCEF06F0395006E13804D8B0CAEF06F0CF
:100D9000CCEF06F0DAEF06F0000E396E000E386E7A
:100DA000000E276E000E286E000E296E000E2A6EB1
:100DB000000E376E38C03EF03EA0E1EF06F0E3EFE4
:100DC00006F0E6EF06F0298EE7EF06F0299ED890B0
:100DD0003E302A6E9DEF05F012008CC0A4F08DC04D
:100DE000A5F08EC0A6F08FC0A7F090C0A8F091C06B
:100DF000A9F092C0AAF093C0ABF00001ABBF03EF23
:100E000007F006EF07F0010E07EF07F0000EA26FE4
:100E1000A36BA251A311D8B410EF07F012EF07F0A3
:100E200022EF07F0AB1FAA1FA91FA81FA71FA61F0D
:100E3000A51FA46D000EA523A623A723A823A923DD
:100E4000AA23AB2343BE27EF07F029EF07F02AEFD1
:100E500007F0449243BE37EF07F0435006E14204E7
:100E6000D8B035EF07F037EF07F03DEF07F0000E91
:100E70009F6F010E9E6F41EF07F042C09EF043C08E
:100E80009FF040C0A0F041C0A1F0A251A311D8A48E
:100E90004CEF07F04EEF07F055EF07F044A453EF87
:100EA00007F055EF07F058EF07F0A007D8A0A1070B
:100EB000000EAD6F1F0EAC6F000EE96FDDEF07F097
:100EC000AC07D8A0AD07CA0EAC25D96E000EAD2177
:100ED000DA6EA4C027F0A5C028F0A6C029F0A7C0EC
:100EE0002AF0A8C02BF0A9C02CF0AAC02DF0ABC0EE
:100EF0002EF00A0E2F6E000E306E000E316E000EB8
:100F0000326E000E336E000E346E000E356E000E23
:100F1000366EE4EC0BF027C094F028C095F029C0A1
:100F200096F02AC097F02BC098F02CC099F02DC0F5
:100F30009AF02EC09BF094C039F096C03AF047EC7E
:100F400010F03950300FDF6E00019E07D8A09F07C8
:100F5000A007D8A0A107A4C027F0A5C028F0A6C06C
:100F600029F0A7C02AF0A8C02BF0A9C02CF0AAC075
:100F70002DF0ABC02EF00A0E2F6E000E306E000E5C
:100F8000316E000E326E000E336E000E346E000EA7
:100F9000356E000E366E1FEC0BF027C0A4F028C093
:100FA000A5F029C0A6F02AC0A7F02BC0A8F02CC03D
:100FB000A9F02DC0AAF02EC0ABF00001ADBFE9EF43
:100FC00007F0AD5108E1AC05D8A0E9EF07F0EBEF71
:100FD00007F01BEF08F0A451A511A611A711A81145
:100FE000A911AA11AB11D8A4F8EF07F0FAEF07F096
:100FF00060EF07F09FBF07EF08F09F5106E19E05E5
:10100000D8B005EF08F007EF08F060EF07F0A1BFD8
:1010100012EF08F0A15108E1A005D8A012EF08F0E6
:1010200014EF08F01BEF08F044B219EF08F01BEFC3
:1010300008F060EF07F0A251A311D8A422EF08F046
:1010400024EF08F02BEF08F044A429EF08F02BEF71
:1010500008F049EF08F0AC07D8A0AD07A251A311E2
:10106000D8A435EF08F037EF08F03DEF08F0000E98
:101070009D6F2B0E9C6F41EF08F0000E9D6F2D0EA3
:101080009C6FCA0EAC25D96E000EAD21DA6E9CC0E5
:10109000DFFF8AC037F08BC038F0CA0EAC25396E3E
:1010A000000EAD213A6EA0C03BF0A1C03CF0B1EC07
:1010B0000EF037C08AF038C08BF01200C4C0A9F01F
:1010C000C5C0AAF0C6C0ABF0C7C0ACF099C0A9F0CB
:1010D0009AC0AAF09BC0ABF09CC0ACF0810E00019E
:1010E0009D6FFF0E9E6FA9C09FF0AAC0A0F0ABC07D
:1010F000A1F0ACC0A2F0180E83EF08F0D890A23394
:10110000A133A0339F33E82E7EEF08F09F519D2539
:10111000A76F000E9E21A86FA8BF98EF08F0A851F6
:1011200009E1170EA75DD8A098EF08F09AEF08F034
:10113000A4EF08F099C099F09AC09AF09BC09BF078
:101140009CC09CF068EF09F0A8BFA9EF08F0ABEFD6
:1011500008F01CEF09F0A7C09DF0FF0E9E6FFF0E78
:101160009F6F7F0EA06F000EA16F9D67BAEF08F012
:10117000C2EF08F0A135A133A0339F339E339D2FDA
:10118000B5EF08F09EC0A3F09FC0A4F0A0C0A5F0EA
:10119000A1C0A6F00001A351A9159D6FA451AA15E5
:1011A0009E6FA551AB159F6FA651AC15A06F9D51B9
:1011B0009E119F11A011D8A4E0EF08F0E2EF08F013
:1011C000E4EF08F09AEF08F0A9C09DF0AAC09EF0E5
:1011D000ABC09FF0ACC0A0F0200EF4EF08F0D890A8
:1011E000A0339F339E339D33E82EEFEF08F09D51DF
:1011F0009E119F11A011D8B400EF09F002EF09F081
:101200000AEF09F0A351A927A451AA23A551AB23A2
:10121000A651AC23A31D9D6FA41D9E6FA51D9F6F9E
:10122000A61DA06F9D51A9179E51AA179F51AB17DC
:10123000A051AC1760EF09F0A9C09DF0AAC09EF0C4
:10124000ABC09FF0ACC0A0F0200E2CEF09F0D890FE
:10125000A0339F339E339D33E82E27EF09F09D5135
:101260009E119F11A011D8A438EF09F03AEF09F0B0
:1012700044EF09F0000EA96F000EAA6F000EAB6FCD
:10128000000EAC6F60EF09F0D890A9359D6FAA35BC
:101290009E6FAB359F6FAC35A06F9D519E119F1116
:1012A000A011D8B456EF09F058EF09F060EF09F03B
:1012B000000EA96F000EAA6F800EAB6FBF0EAC6F51
:1012C000A9C099F0AAC09AF0ABC09BF0ACC09CF04A
:1012D0001200B0C0D9FFB1C0DAFFDECFF6FFDDCF1C
:1012E000F7FF0800F550250AD8A479EF09F07BEF45
:1012F00009F029EF0AF0B0C0D9FFB1C0DAFFDE2A49
:10130000000EDD22000E416E000E406E40C044F023
:1013100041C045F042684368B0C0D9FFB1C0DAFFB0
:10132000DECFF6FFDDCFF7FF0800F550640AD8B432
:101330009CEF09F09EEF09F0B0EF09F0B0C0D9FFC3
:10134000B1C0DAFFDECFF6FFDDCFF7FF0800F550C2
:10135000690AD8A4AEEF09F0B0EF09F0F1EF09F097
:10136000B0C0D9FFB1C0DAFFDE2A000EDD22B2C064
:10137000D9FFB3C0DAFFDFCF3EF0020EDE26DFCFAB
:101380003FF0000EDD223EC0D9FF3FC0DAFFDECFC6
:10139000B4F0DDCFB5F00001000EB5BFFF0EB66FA3
:1013A000B76FB86FB96FBA6FBB6FAEC08AF0AFC01E
:1013B0008BF0B4C08CF0B5C08DF0B6C08EF0B7C065
:1013C0008FF0B8C090F0B9C091F0BAC092F0BBC035
:1013D00093F0EDEC06F08AC0AEF08BC0AFF044EFB6
:1013E0000AF0B0C0D9FFB1C0DAFFDECFF6FFDDCF23
:1013F000F7FF0800F550250AD8A401EF0AF003EF23
:101400000AF01BEF0AF0B0C0D9FFB1C0DAFFDE2A44
:10141000000EDD22000E286E250E276EAEC029F0CC
:10142000AFC02AF016EC0FF0000E0001AF6F010EF6
:10143000AE6F44EF0AF0B0C0D9FFB1C0DAFFDE2AC8
:10144000000EDD22000E0001AF6F000EAE6F44EF04
:101450000AF0B0C0D9FFB1C0DAFFDECFF6FFDDCFB2
:10146000F7FF0800F550276E286AAEC029F0AFC01C
:101470002AF016EC0FF0B0C0D9FFB1C0DAFFDE2AB7
:10148000000EDD2214EF0AF01200176E1750D8B4C8
:101490004CEF0AF04EEF0AF070EF0AF012BE55EF73
:1014A0000AF053EF0AF070EF0AF00FC013F010C00B
:1014B00014F011C015F012C016F0131E141E151EE4
:1014C000161E132A000E14221522162213C019F01C
:1014D00014C01AF015C01BF016C01CF078EF0AF00B
:1014E0000FC019F010C01AF011C01BF012C01CF090
:1014F0000F50101011101210D8A481EF0AF083EFD2
:101500000AF08DEF0AF0000E0F6E000E106E000E46
:10151000116E000E126E1EEF0BF0960E186E97EF06
:101520000AF0182AD8901C321B321A321932000ED7
:101530001914136E000E1A14146E000E1B14156E7F
:10154000FE0E1C14166E1350141015101610D8A48D
:10155000ACEF0AF0AEEF0AF091EF0AF0BCEF0AF040
:10156000182A010E1926000E1A221B221C22D890BE
:101570001C321B321A321932000E1914136E000E6F
:101580001A14146E000E1B14156EFF0E1C14166E2A
:101590001350141015101610D8A4D1EF0AF0D3EF81
:1015A0000AF0B0EF0AF0DBEF0AF01806D89019360F
:1015B0001A361B361C361BBEE0EF0AF0E2EF0AF0CB
:1015C000EAEF0AF0020E1860E8EF0AF0EAEF0AF01C
:1015D000D5EF0AF018B0EFEF0AF0F1EF0AF0F2EFF2
:1015E0000AF01B9ED890183218C013F0146A156ABE
:1015F000166A13C016F0156A146A136A135019128A
:1016000014501A1215501B1216501C121750D8B431
:101610000CEF0BF00EEF0BF016EF0BF012BE15EF08
:101620000BF013EF0BF016EF0BF01C8E19C00FF040
:101630001AC010F01BC011F01CC012F01200000EF6
:101640000001816F36BE29EF0BF027EF0BF03BEF67
:101650000BF0361E351E341E331E321E311E301E58
:101660002F6C000E302231223222332234223522D6
:101670003622010E816F2EBE42EF0BF040EF0BF0D1
:1016800054EF0BF02E1E2D1E2C1E2B1E2A1E291E63
:10169000281E276C000E282229222A222B222C22E7
:1016A0002D222E22010E811B20EE82F0070EDE6A13
:1016B000E806FDE22F503010311032103310341094
:1016C00035103610D8B467EF0BF069EF0BF0BBEFB5
:1016D0000BF0010E806F77EF0BF0D8902F3630367D
:1016E000313632363336343635363636802B36AEF2
:1016F0007CEF0BF07EEF0BF06DEF0BF0D8908237A4
:1017000083378437853786378737883789372F502F
:10171000275C305028583150295832502A583350BD
:101720002B5834502C5835502D5836502E58D8A0A0
:101730009CEF0BF09EEF0BF0AFEF0BF02F50275EFE
:101740003050285A3150295A32502A5A33502B5A85
:1017500034502C5A35502D5A36502E5A8281D890FA
:1017600036323532343233323232313230322F3255
:10177000802F7EEF0BF08151D8B4C1EF0BF0C3EF97
:101780000BF0D3EF0BF0891F881F871F861F851F63
:10179000841F831F826D000E832384238523862369
:1017A00087238823892382C027F083C028F084C040
:1017B00029F085C02AF086C02BF087C02CF088C0A5
:1017C0002DF089C02EF01200000E386E2EBEEDEF07
:1017D0000BF0EBEF0BF0FFEF0BF02E1E2D1E2C1E6F
:1017E0002B1E2A1E291E281E276C000E28222922A5
:1017F0002A222B222C222D222E22010E386E36BEBA
:1018000006EF0CF004EF0CF016EF0CF0361E351E50
:10181000341E331E321E311E301E2F6C000E30223D
:101820003122322233223422352236222F503010F8
:10183000311032103310341035103610D8B423EF75
:101840000CF025EF0CF06DEF0CF0010E376E33EF5E
:101850000CF0D8902F3630363136323633363436B7
:1018600035363636372A36AE38EF0CF03AEF0CF014
:1018700029EF0CF02F50275C305028583150295850
:1018800032502A5833502B5834502C5835502D583C
:1018900036502E58D8A04FEF0CF051EF0CF061EFFE
:1018A0000CF02F50275E3050285A3150295A3250B0
:1018B0002A5A33502B5A34502C5A35502D5A365000
:1018C0002E5AD890363235323432333232323132C7
:1018D00030322F32372E3AEF0CF03850D8B473EF45
:1018E0000CF075EF0CF085EF0CF02E1E2D1E2C1E4B
:1018F0002B1E2A1E291E281E276C000E2822292294
:101900002A222B222C222D222E2227C027F028C06B
:1019100028F029C029F02AC02AF02BC02BF02CC0B7
:101920002CF02DC02DF02EC02EF01200A2EC10F0E5
:10193000000E2B6E010E2C6E060E2D6E010E67EC46
:1019400010F00AEC11F0CD90000E0001846F000E33
:10195000856F7A0E866F440E876F51C02BF052C090
:101960002CF053C02DF054C02EF0000E276E000E48
:10197000286E800E296E3F0E2A6E20EC05F027C0DF
:1019800080F028C081F029C082F02AC083F00AECE0
:1019900003F080C099F081C09AF082C09BF083C0B0
:1019A0009CF05EEC08F099C0ADF09AC0AEF09BC020
:1019B000AFF09CC0B0F02DEC0EF0ADC046F0AEC064
:1019C00047F0EA0E0101006F000E016F100E026F6A
:1019D000060E036F46C004F147C005F1DBEC0FF0C3
:1019E0004A0E0101006F000E016F100E026F060E0D
:1019F000036F48C004F149C005F1DBEC0FF0EA0EBB
:101A0000336E000E346E0B0E356E060E366EF7EC2E
:101A100010F0080E2B6EEA0E2C6E000E2D6E010ECD
:101A200067EC10F0050E2B6E4A0E2C6E000E2D6E1C
:101A3000020E67EC10F0A4EF0CF007EF00F00600C8
:101A40009EA425EF0DF027EF0DF02BEF0DF0CD80CC
:101A50009D829E949D94A1A030EF0DF032EF0DF089
:101A60008AEF0DF0A090CD909D92CF501E6E1D6A12
:101A70001DC01FF01EC020F0000E20BEFF0E216E04
:101A8000226E55501F24236E56502020246E57502E
:101A90002120256E58502220266ECE502310556EE0
:101AA0002450566E2550576E2650586E55C005F07E
:101AB00056C006F057C007F058C008F07F0E016E00
:101AC0006A0E026E4C0E036E000E046EA7EC0DF053
:101AD00001C00FF002C010F003C011F004C012F0FA
:101AE000010E45EC0AF00FC051F010C052F011C0C9
:101AF00053F012C054F0000ECE6E000ECF6EA190C7
:101B0000A0809D84000E556E000E566E000E576E1E
:101B1000000E586E9EA08FEF0DF091EF0DF0A5EF27
:101B20000DF0FF0E5524556E030E5620566E000E16
:101B30005720576E000E5820586E000ECF6E000EC4
:101B4000CE6E9E90484A492ACD8059921100000ECF
:101B50000A6E08BEB0EF0DF0AEEF0DF0BAEF0DF06B
:101B6000081E071E061E056C000E0622072208220C
:101B7000010E0A6E04BEC1EF0DF0BFEF0DF0CBEF0A
:101B80000DF0041E031E021E016C000E0222032231
:101B90000422010E0A1A000E0B6E000E0C6E000ECF
:101BA0000D6E000E0E6E0550061007100810D8B40A
:101BB000DCEF0DF0DEEF0DF014EF0EF0010E096E0C
:101BC000E8EF0DF0D8900536063607360836092AB4
:101BD00008AEEDEF0DF0EFEF0DF0E2EF0DF0D89065
:101BE0000B360C360D360E360550015C0650025889
:101BF0000750035808500458D8A001EF0EF003EF27
:101C00000EF00CEF0EF00550015E0650025A075020
:101C1000035A0850045A0B80D89008320732063213
:101C20000532092EEFEF0DF00A50D8B41AEF0EF07E
:101C30001CEF0EF024EF0EF00E1E0D1E0C1E0B6C92
:101C4000000E0C220D220E220BC001F00CC002F07F
:101C50000DC003F00EC004F012000001AF35B03526
:101C6000B66FB651D8A437EF0EF039EF0EF043EF50
:101C70000EF0000EAD6F000EAE6F000EAF6F000ED7
:101C8000B06FB0EF0EF0ADC0B1F0AEC0B2F0AFC00B
:101C9000B3F0B0C0B4F0200E53EF0EF0D890B433D0
:101CA000B333B233B133E82E4EEF0EF0B151B56F0E
:101CB000AF8FFF0EAD17FF0EAE17FF0EAF17000E62
:101CC000B017960EB65FB6BF6AEF0EF068EF0EF073
:101CD00080EF0EF0B651800A970FD8B072EF0EF079
:101CE00074EF0EF076EF0EF039EF0EF0D890B033BF
:101CF000AF33AE33AD33B63F76EF0EF098EF0EF064
:101D00001F0EB66586EF0EF088EF0EF090EF0EF026
:101D100039EF0EF0D890AD37AE37AF37B037B607E2
:101D2000B651D8A496EF0EF098EF0EF08AEF0EF0B1
:101D3000B551D8B49EEF0EF0A0EF0EF0A8EF0EF064
:101D4000B01FAF1FAE1FAD6D000EAE23AF23B0238B
:101D5000ADC0ADF0AEC0AEF0AFC0AFF0B0C0B0F04F
:101D6000120044A0B6EF0EF0B8EF0EF0C2EF0EF086
:101D700039C030F03AC031F037C032F038C033F0FB
:101D800005EC10F03CBEC7EF0EF0C9EF0EF0CFEF40
:101D90000EF03BC082F03CC083F0D4EF0EF0000E9A
:101DA0000001836F000E826F000E0001816F000E34
:101DB000806FE8EF0EF0000E286E200E276E37C001
:101DC00029F038C02AF016EC0FF00001804B812B6F
:101DD0008251805D8151800A3D6E8351800A3D5859
:101DE000D8A0F5EF0EF0F7EF0EF0DBEF0EF044B0F9
:101DF000FCEF0EF0FEEF0EF008EF0FF039C030F000
:101E00003AC031F037C032F038C033F005EC10F092
:101E100039C027F03AC028F087EC10F00001825159
:101E20002724376E83512820386E120029502A103B
:101E3000D8B41DEF0FF01FEF0FF028EF0FF029506F
:101E40002A10D8A426EF0FF028EF0FF02DEF0FF097
:101E500027501AEC11F07AEF0FF020EE04F0295021
:101E6000D9262A50DA22DE50DE10D8B43AEF0FF02D
:101E70003CEF0FF057EF0FF020EE04F02950D92679
:101E80002A50DA2210EE02F02950E1262A50E222EE
:101E9000DE50E65CE650800A2F6EDE50800A2F5836
:101EA000D8B055EF0FF057EF0FF07AEF0FF020EEAC
:101EB00002F02950D9262A50DA22DECF2BF0DDCFCE
:101EC0002CF029C0D9FF2AC0DAFFDECF2DF0DDCFFC
:101ED0002EF02B502D24D96E2C502E20DA6E27C0D8
:101EE000DFFF20EE02F02950D9262A50DA22DE2A1E
:101EF000000EDD221200BEC0C2F0BFC0C3F0000E53
:101F00000001C96F000EC86F99EF0FF0BCC0AEF0B2
:101F1000BDC0AFF0C20EB06F000EB16FC0C0B2F066
:101F2000C1C0B3F069EC09F00001AE51C827AF5150
:101F3000C923C2C0F6FFC3C0F7FF0800F55000096F
:101F4000D8A4A5EF0FF0A7EF0FF086EF0FF0C8C0F1
:101F5000BCF0C9C0BDF01200C2EF0FF029C0F6FFFF
:101F60002AC0F7FFF86A050EF76403D00800F550A1
:101F700005D0F6CFE1FFF7CFE2FFE750BAEC10F063
:101F8000294A2A2A29C0F6FF2AC0F7FFF86A050E57
:101F9000F76403D00800F55005D0F6CFE1FFF7CF86
:101FA000E2FFE7500009D8A4D8EF0FF0DAEF0FF006
:101FB000AEEF0FF01200040E0101066F010E076F65
:101FC00000C108F101C109F1000E0B6F000E0A6F8C
:101FD000000E0D6F000E0C6F080E0001BC6F010E9D
:101FE000BD6F02C1BEF003C1BFF0060EC06F010E8F
:101FF000C16F7BEC0FF001010A510025D96E0B5126
:102000000121DA6E000EDF6E1200000E366E000E39
:10201000356E16EF10F034C027F0286A32C029F070
:1020200033C02AF016EC0FF0354A362A35503024EA
:10203000D96E36503120DA6EDF50346E3450D8A469
:1020400024EF10F026EF10F00BEF10F012002DC06F
:102050002FF02EC030F02BC031F02CC032F02FC04A
:10206000F6FF30C0F7FF2F4A302A31C0D9FF32C007
:10207000DAFF314A322A0800F5CFDFFFDF50D8A45B
:1020800044EF10F046EF10F02FEF10F012003ABEC0
:1020900054EF10F03A5006E13904D8B052EF10F086
:1020A00054EF10F062EF10F039C03BF03AC03CF052
:1020B0003B1E3C1E3B4A3C2A3BC039F03CC03AF038
:1020C00066EF10F039C039F03AC03AF012002E6EC7
:1020D000020E2E606EEF10F070EF10F079EF10F03E
:1020E0002B500F0B80092F6E2F50CFEC10F080EF8C
:1020F00010F02B500F0BC0092F6E2F50CFEC10F0AB
:102100002CC029F02DC02AF0ACEC0FF0120027C033
:1021100029F028C02AF08FEF10F0274A282A27C07C
:10212000D9FF28C0DAFFDF50D8A499EF10F09BEF59
:1021300010F08DEF10F02950275C276E2A50285898
:10214000286E1200000E936E000E956E0D0E296E15
:10215000FC0EE82EFED7292EFCD7380ECFEC10F05F
:10216000010ECFEC10F0060ECFEC10F00C0ECFEC01
:1021700010F01200286E28C081FF83808382030E36
:10218000276E980EE82EFED7272EFCD78392080ED6
:10219000276ECA0EE82EFED7272EFCD71200286E17
:1021A00028C081FF83908382030E276E980EE82E4D
:1021B000FED7272EFCD78392080E276ECA0EE82E74
:1021C000FED7272EFCD7120000EEC4F03A0EEE6ABE
:1021D000E806FDE100EE40F0190EEE6AE806FDE1CA
:1021E00059905992000EF86E000196EF0CF033C032
:1021F00027F034C028F087EC10F0275033242B6EE2
:10220000285034202C6E35C02DF036C02EF027EC2F
:1022100010F01200050EBD6E040EBA6E9482948406
:102220009D84A0809E90F28CF28E000ECD6ECD909B
:062230009D821200120065
:020000040020DA
:08000000FFFFFFFFFFFFFFFF00
:020000040030CA
:0E000000FF021F1FFF8385FF0FC00FE00F40A0
:00000001FF
