:040000008FEF3EF050
:107CC800FD0DDBF367B7BFE1FFF78280A60EE82E54
:107CD800FED700D0829012008284A60EE82EFED72E
:107CE80000D08294120081A07CEF3EF07EEF3EF03F
:107CF80081EF3EF0818282EF3EF08192120081ACEA
:107D080088EF3EF08AEF3EF08DEF3EF0818E8EEFE9
:107D18003EF0819E1200C80EF66E7C0EF76E000EC5
:107D2800F86E00EE15F010EE0AF00900F5CFEEFF40
:107D3800E550E150FAE10001A2EF3EF0410E936EEA
:107D4800000E946E77EC3EF083EC3EF0000E146E5D
:107D5800000E136E13C001F014C002F0000E046E82
:107D68000A0E036E46EC3FF0150E0124D96E000E84
:107D78000220DA6EDF50096E13C001F014C002F061
:107D8800000E046E0A0E036E9EEC3FF0150E0124E1
:107D9800D96E000E0220DA6EDF50F2EC3EF0030ED0
:107DA800126E8A0E116E560EE82EFED7112EFCD7D3
:107DB800122EFAD7134A142A14BEECEF3EF01450D0
:107DC80009E1640E135CD8A0ECEF3EF0EEEF3EF054
:107DD800AEEF3EF0A6EF3EF000EF00F00C6E000EA6
:107DE8000E6E000E0D6E0DC00AF009C00BF00A2AC7
:107DF80000EF3FF0D8900B320A2EFEEF3EF00B4614
:107E080082500B18FD0B0B18826E69EC3EF00D4A80
:107E18000E2A0EBE19EF3FF00E5009E1080E0D5C58
:107E2800D8A019EF3FF01BEF3FF0F7EF3EF0000E40
:107E3800106E000E0F6E0FC00AF00CC00BF00A2A6D
:107E480028EF3FF0D8900B320A2E26EF3FF00B4672
:107E580082500B18FD0B0B18826E69EC3EF00F4A2E
:107E6800102A10BE41EF3FF0105009E1080E0F5CD8
:107E7800D8A041EF3FF043EF3FF01FEF3FF070EC29
:107E88003EF01200000E066E02BE4FEF3FF04DEFBF
:107E98003FF055EF3FF0016C021ED8B0022A010EE8
:107EA800066E04BE5CEF3FF05AEF3FF060EF3FF024
:107EB800036C041ED8B0042A03500410D8B467EF2A
:107EC8003FF069EF3FF08DEF3FF0010E056E71EF67
:107ED8003FF0D89003360436052A04AE76EF3FF01B
:107EE80078EF3FF06DEF3FF00350015C045002580B
:107EF800D8A081EF3FF083EF3FF087EF3FF00350CA
:107F0800015E0450025AD89004320332052E78EFED
:107F18003FF00650D8B493EF3FF095EF3FF099EF5C
:107F28003FF0016C021ED8B0022A01C001F002C065
:107F380002F01200000E066E04BEA7EF3FF0A5EF98
:107F48003FF0ADEF3FF0036C041ED8B0042A010ED9
:107F5800066E02BEB4EF3FF0B2EF3FF0BAEF3FF06B
:107F6800016C021ED8B0022A010E061A000E086E15
:107F7800000E076E03500410D8B4C5EF3FF0C7EFEA
:107F88003FF0EFEF3FF0010E056ECFEF3FF0D890D6
:107F980003360436052A04AED4EF3FF0D6EF3FF09F
:107FA800CBEF3FF0D890073608360350015C0450F9
:107FB8000258D8A0E2EF3FF0E4EF3FF0E9EF3FF0DE
:107FC8000350015E0450025A0780D89004320332ED
:107FD800052ED6EF3FF00650D8B4F5EF3FF0F7EF97
:107FE8003FF0FBEF3FF0076C081ED8B0082A07C027
:087FF80001F008C002F01200C4
:020000040020DA
:08000000FFFFFFFFFFFFFFFF00
:020000040030CA
:0E000000FF02181EFF8181FF0FC00FE00F40AE
:00000001FF
